:020000040800F2
:1000000028090020450100084D0100084F010008A3
:1000100051010008530100085501000800000000CC
:100020000000000000000000000000005701000870
:1000300059010008000000005B0100085D01000894
:100040005F0100085F0100085F0100085F01000810
:100050005F0100085F0100085F0100084D0F000804
:100060005F0100085F0100085F010008AD0B000898
:100070005F0100085F0100085F0100085F010008E0
:100080005F0100085F0100085F0100085F010008D0
:100090005F0100085F0100085F010008650F0008AC
:1000A0005F0100085F0100085F0100085F010008B0
:1000B0005F0100085F0100085F0100085F010008A0
:1000C0005F0100085F0100085F0100085F01000890
:1000D0005F0100085F010008E53100085F010008CA
:1000E0005F0100085F0100085F0100085F01000870
:1000F0005F0100085F0100085F0100085F01000860
:100100005F0100085F0100085F0100085F0100084F
:10011000AD2C00085F010008712900085F0100088C
:100120005F0100085F0100085F0100085F0100082F
:10013000DFF80CD000F076FA00480047493B000891
:10014000280900200648804706480047FEE7FEE7EA
:10015000FEE7FEE7FEE7FEE7FEE7FEE7FEE7FEE777
:100160008D28000831010008D2B201E000F8012B0F
:10017000491EFBD270470022F6E710B513460A4627
:1001800004461946FFF7F0FF204610BD0EB5C10F1B
:1001900080EAE0700844CA07002140F233438DE84A
:1001A0000E000A460B4600F038F803B000BDC1F35C
:1001B0000A5210B5C1F3130140F2FF3341F480112C
:1001C0009A4201DA002010BD40F233439A42A2F273
:1001D000334203DC524200F003F810BD904010BDE2
:1001E000202A04DB203A21FA02F00021704721FA8C
:1001F00002F3D040C2F120029140084319467047F3
:1002000010B5002B08DA401C41F1000192185B4147
:100210001A4301D120F0010010BD2DE9F04D9246A6
:100220009B4611B1B1FA81F202E0B0FA80F22032BD
:10023000904600F009FA04460F4640EA0A0041EAF7
:100240000B0153465A46084303D120463946BDE8C0
:10025000F08D114653EA010015D0C8F14002504616
:10026000FFF7BEFF05460E4650465946424600F08F
:10027000EBF9084301D0012000E00020054346EAE5
:10028000E0762C4337430A984FEA4453A0EB08002A
:100290004FEAD4240A304FF0000244EA47544FEAB0
:1002A000D72502D500200146D1E701051019694183
:1002B000DDE9084500196941BDE8F04DA0E72DE9E9
:1002C000FE4F804681EA0300C00F0C46009021F0EB
:1002D000004123F00045B8EB0200A94105D2404699
:1002E000214690461C460B46024623F00040104330
:1002F00004D14046214603B0BDE8F08F270DC7F377
:100300000A00C3F30A510290401A0190402866DAAD
:10031000C3F3130040F4801B0098924620B10023E1
:10032000D2EB030A63EB0B0B01985946C0F1400274
:10033000504600F089F906460D4650465946019A46
:1003400000F091F910EB08006141002487EA115296
:1003500084EAE7731A433BD0009A3AB3019A012A20
:100360004FEA075210DC001B61EB02014FF0004224
:1003700002EA0752CDE90042001C41F580113246E5
:100380002B46FFF74AFFB6E7001B61EB0201001C9A
:1003900041F5801300185B412018A2F5001747EBC8
:1003A000030140EAD570B6196D4111E06D084FEABE
:1003B000360645EAC0754FEA0752001B61EB0201A1
:1003C000001C41F5801149084FEA300000195141E5
:1003D00032462B4603B0BDE8F04FFFF711BF00983F
:1003E000012240000023D0EB020263EBE07300988F
:1003F00021464FEAE074B8EB000061EB0401E9E745
:1004000083F000435BE781F0004158E72DE9FE4FA0
:1004100081EA030404F0004421F0004100944FF00D
:10042000000B23F0004350EA010402D052EA030417
:1004300004D10020014603B0BDE8F08FC3F30A5495
:10044000C1F30A552C44A4F2F3340194A0FB0254E6
:10045000C1F3130141F48011C3F3130343F4801378
:1004600001FB024400FB034E840A970A44EA8154CC
:1004700047EA8357A4FB076802958D0A05FB0785A9
:100480004FEA932C04FB0C542705029D4FEA0658B3
:1004900047EA1637B5EB08056EEB070C870E920E90
:1004A00047EA811742EA8312A7FB0201B6EB0B0170
:1004B00064EB00042B0D43EA0C335E1844EB1C5034
:1004C000DA465146E7FB0201C5F313044FEA0B334A
:1004D00043EA14534FEA0432019C43EA0603A4F1B1
:1004E0000C040294009CCDE900B4FFF796FEA2E74D
:1004F0002DE9F04D81EA030404F0004B21F00045A2
:1005000014464FF0000A23F0004150EA050220D0C3
:1005100054EA01021DD0C5F30A570246C5F313037E
:10052000C1F31300C1F30A5640F4801543F480135D
:10053000A7EB0608101BD64608F2FD3873EB050042
:1005400002D308F1010801E092185B41B8F1000FF5
:1005500003DA00200146BDE8F08D00204FF4801141
:10056000064684460EE0171B73EB050705D3121BE6
:1005700063EB050306434CEA010C49084FEA3000DF
:1005800092185B4150EA0107EDD152EA030012D004
:1005900082EA040083EA0501084303D100224FF0F8
:1005A000004308E0101BAB4102D20122002302E00D
:1005B0006FF0010253101AEB06004CEB085110EBE0
:1005C0000A0041EB0B01BDE8F04DFFF719BE70B515
:1005D00021F0004303430CD0C1F30A550024D5EBAE
:1005E000040564EB0403D617AD1AB34102DB002007
:1005F000014670BD201841EB025170BD30B5002995
:1006000004DB4FF00044404264EB0101002B04DBAB
:100610004FF00044524264EB0303994208BF9042FA
:1006200030BD0000064C074D06E0E06840F00103D5
:1006300094E8070098471034AC42F6D3FFF77CFDEE
:1006400080470008A0470008202A04DB203A00FA6F
:1006500002F1002070479140C2F1200320FA03F319
:10066000194390407047202A06DBCB17203A41FA05
:1006700002F043EAE07306E041FA02F3D040C2F12F
:10068000200291400843194670472DE9F04D0023A0
:100690001A461B1A8A4103DB00200146BDE8F08D93
:1006A000C1F30A52C1F3130141F480154FF0000B5E
:1006B000D10702D100186D41521E0027044640F2B6
:1006C000FF11384601EB620A3E4680460246002092
:1006D0004FF48011FFF784FDC2197141BB1846EB3E
:1006E0000100B4EB030C75EB000C04D3E41A65EBCA
:1006F000000517460E46241908F101006D41804699
:100700003428E3DDF91946EB0600091BA84103D2A2
:100710004FF0FF32134601E0002213461BEB0700A7
:1007200046EB0A51BDE8F04DFFF76ABD70B501EB2D
:10073000020410F8015B15F0070301D110F8013B2A
:100740002A1106D110F8012B03E010F8016B01F813
:10075000016B5B1EF9D12B0705D40023521E0FD469
:1007600001F8013BFAE710F8013B02F10202A1EBAC
:10077000030303E013F8015B01F8015B521EF9D596
:10078000A142D6D3002070BD00B599B001214FF42D
:10079000057001F0A5FD0121084601F081FD012150
:1007A000084601F06DFD4020ADF8600000208DF896
:1007B000630018A95C4801F09FF80120ADF86000C3
:1007C00018A95A4801F098F80121084601F088FD5F
:1007D0000121574801F01CF905A802F0E1F9632056
:1007E000ADF8180040F26710ADF814000020ADF825
:1007F0001A00ADF8160005A94FF0804002F07EF90E
:100800006020ADF804000120ADF806001420ADF81A
:100810000A000220ADF80C0001A9400702F01CF903
:100820000121880702F0E0F80121880702F0EEF8C4
:10083000404800F00BFA40480890404809900020DA
:100840000A9002200B9000200C9080200D90400018
:100850000E9080000F902020109000021190002038
:10086000129008A9334800F0B6FA0122022131485B
:1008700000F0A8FA01212F4800F0DCF900201390C5
:1008800001208DF8500000208DF851004FF4C02059
:1008900015900020169002208DF85C0013A92648C0
:1008A0004C3800F08FF84FF4404001F0DDFC052398
:1008B0000122062120484C3800F0ACF80523022222
:1008C0000A211D484C3800F0A5F801211A484C387F
:1008D00000F04CF8012118484C3800F031F8164867
:1008E0004C3800F0F3F800BF13484C3800F053F8D0
:1008F0000028F9D110484C3800F0EDF800BF0E4840
:100900004C3800F03EF80028F9D101210A484C3853
:1009100000F021F801224FF4087107484C3800F02C
:1009200044F819B000BD000000080140001001406B
:1009300000031800080002404C240140F604002087
:1009400021B1826842F00102826003E0826822F0F5
:1009500001028260704721B1826842F48072826035
:1009600003E0826822F480728260704721B182685D
:1009700042F48012826003E0826822F48012826076
:100980007047014600208A6802F004020AB1012083
:1009900000E000207047014600208A6802F008024B
:1009A0000AB1012000E00020704710B50023CBB24F
:1009B0001AB144681C43446002E044689C434460AC
:1009C00010BD000030B502460020002350680F4CD7
:1009D00020400D790C6844EA05242043506090685B
:1009E0000B4C2040D1E902542C434D7944EA450494
:1009F00020439060D06A20F470000C7C641EE4B246
:100A0000234340EA0350D06230BD0000FFFEF0FFF8
:100A1000FDF7F1FFF0B504460D4600200021092D39
:100A200011DDE068A5F10A0606EB4607072606FA7F
:100A300007F18843A5F10A0606EB460603FA06F11C
:100A40000843E0600CE0206905EB4507072606FA3D
:100A500007F1884305EB450603FA06F108432061D8
:100A6000072A0FDA606B561E06EB86071F2606FA6A
:100A700007F18843561E06EB860605FA06F1084381
:100A8000606322E00D2A0FDA206BD61F06EB860783
:100A90001F2606FA07F18843D61F06EB860605FADD
:100AA00006F10843206310E0E06AA2F10D0606EBB0
:100AB00086071F2606FA07F18843A2F10D0606EB0A
:100AC000860605FA06F10843E062F0BD816841F050
:100AD000080181607047816841F0040181607047BE
:100AE00001780A2291FBF2F302FB131102780A2328
:100AF00092FBF3F201EB02112B4A117041780A22AA
:100B000091FBF2F302FB131142780A2392FBF3F2FA
:100B100001EB0211244A517081780A2291FBF2F311
:100B200002FB131182780A2392FBF3F201EB02110C
:100B30001D4A9170C1780A2291FBF2F302FB131156
:100B4000C2780A2392FBF3F201EB0211164AD1702C
:100B500001790A2291FBF2F302FB131102790A23B5
:100B600092FBF3F201EB02110F4A117141790A2253
:100B700091FBF2F302FB131142790A2392FBF3F289
:100B800001EB0211084A517181790A2291FBF2F3BB
:100B900002FB131182790A2392FBF3F201EB02119B
:100BA000014A917170470000B300002010B5022087
:100BB00000F0F2F820B3012000F02EF81148008870
:100BC0001149124A127821F812000E4841880E4845
:100BD00014300E4A127820F812100C480078401C8D
:100BE0000A490870084600780A2809D101200849F6
:100BF000087000200549087000210648FFF7ABFE89
:100C000010BD0000F604002000050020A300002015
:100C1000A00000200024014000F0805111B10349E0
:100C2000086001E002494860704700000404024087
:100C30000000024021B1026842F00102026004E0BB
:100C400002684FF6FE731A400260704701684FF663
:100C5000FE72114001600021016041608160C1604D
:100C60004B49884208D14A490839496841F00F0187
:100C7000474A083A51608AE045491431884208D110
:100C800043490839496841F0F001414A083A516046
:100C90007DE03F492831884208D13D4908394968FB
:100CA00041F470613A4A083A516070E038493C3189
:100CB000884208D136490839496841F47041344ABC
:100CC000083A516063E032495031884208D13049D6
:100CD0000839496841F470212D4A083A516056E0BC
:100CE0002B496431884208D129490839496841F4BF
:100CF0007001274A083A516049E025497831884215
:100D000008D123490839496841F07061204A083AFE
:100D100051603CE01F49884206D1011F096841F03B
:100D20000F01021F116032E01A491431884208D1C4
:100D30001849091F096841F0F001164A121F116095
:100D400025E014492831884208D11249091F096851
:100D500041F470610F4A121F116018E00D493C31D7
:100D6000884208D10B49091F096841F47041094ABA
:100D7000121F11600BE007495031884207D1054925
:100D8000091F096841F47021024A121F116070475F
:100D9000080002400804024001460020002201F041
:100DA000805313B1054B1A6801E0054B1A6802EA3B
:100DB00001030BB1012000E0002070470004024055
:100DC000000002401AB103680B43036002E00368AD
:100DD0008B430360704710B50022026847F6F0733A
:100DE0009A430C6A8B6823430C6923434C69234361
:100DF0008C692343CC6923434C6A23438C6A234385
:100E00001A430260CB6843600B6883604B68C36021
:100E100010BD01B506E0002001E0411C88B2B0F52C
:100E2000FA5FFADBBDF800104A1E92B20092002968
:100E3000F1D108BD70B504460E4600F0A9FE0821A8
:100E4000254800F038FE04F0FE0400251CE004F004
:100E5000010020B10421204800F02DFE03E0042110
:100E60001D4800F026FE052001F0C4FA02211A48B0
:100E700000F021FE0221184800F01BFE052001F0C1
:100E8000B9FA6410681CC5B2082DE0DB00251CE02F
:100E900006F0010020B104210F4800F00CFE03E031
:100EA00004210D4800F005FE052001F0A3FA0221FF
:100EB000094800F000FE0221074800F0FAFD052075
:100EC00001F098FA7610681CC5B2082DE0DB082105
:100ED000014800F0EEFD70BD0010014010B519484A
:100EE000FFF7FEFD00218E20FFF7A4FF80210846BA
:100EF000FFF7A0FF144801788C20FFF79BFF1248F2
:100F000041788820FFF796FF0F4881788620FFF709
:100F100091FF0D48C1788A20FFF78CFF0A480179BC
:100F20008420FFF787FF084841798220FFF782FF7E
:100F3000054881798020FFF77DFF80218E20FFF713
:100F400079FF10BDAC000020B300002010B50220D6
:100F500000F0A0F828B1022000F048F8002002F0CC
:100F6000B3FC10BD10B5402000F094F828B140202B
:100F700000F03CF8012019490870802000F08AF840
:100F800040B1012016490870132000F06EFA80204D
:100F900000F02CF84FF4807000F07CF8E0B10220F3
:100FA00000F063FA0F490880FF21022000F063FA85
:100FB0000C48007800F0180050B101200A49087070
:100FC0000848007800F0100010B1002002F07CFC0E
:100FD0004FF4807000F00AF810BD0000A20000205D
:100FE000A1000020780000207F0000200149086057
:100FF00070470000140401400EB50121512001F09A
:101000006FF94FF4E070ADF8080028208DF80B0060
:1010100002A91E4800F070FC0220ADF8080002A9E9
:101020001B4800F069FC0621022000F045FC40202E
:10103000009000208DF8040008208DF805000120A4
:101040008DF80600684600F039F80721022000F00C
:1010500033FC80200090684600F030F80821022020
:1010600000F02AFC4FF480700090684600F026F8EB
:101070000121042000F020FC022000900C208DF8BB
:101080000500684600F01AF80EBD0000001001408F
:1010900000180140014600200022074B1B6803EAAC
:1010A0000102054B14331B680B4013B10AB1012038
:1010B00000E00020704700000004014000212349A7
:1010C0008279002A3AD00A46126803689A430B468E
:1010D0001A600A1D126803689A430B1D1A60027990
:1010E00011440A6803681A430A60184A08321268F1
:1010F00003689A43154B08331A601A1D1268036877
:101100009A43124B0C331A604279102A0ED11A1FDF
:10111000126803681A430D4B08331A601A1D1268CF
:1011200003681A43094B0C331A600DE007494279F2
:1011300011440A6803681A430A6005E00279114401
:101140000A6803689A430A6070470000000401407F
:101150000149C860704700000020024030B50446D5
:1011600004254FF4302000F06FF80546042D17D108
:101170000C48006940F002000A49086108464461D1
:10118000006940F0400008614FF4302000F05CF846
:1011900005460448006941F6FD71084001490861AF
:1011A000284630BD0020024004200B49C96801F0E8
:1011B000010109B101200EE00749C96801F00401ED
:1011C00009B1022007E00449C96801F0100109B122
:1011D000032000E00420704700200240034800691B
:1011E00040F0800001490861704700000020024083
:1011F00070B504460D460426F00200F025F80646B8
:10120000042E11D10948006940F001000749086126
:101210002580F00200F018F806460448006941F6FF
:10122000FE71084001490861304670BD002002404F
:1012300002480349486003484860704723016745F6
:1012400000200240AB89EFCD00B502460423FFF732
:10125000ABFF034603E0FFF7A7FF0346521E012B37
:1012600001D1002AF7D102B90523184600BD0000BC
:1012700000B597B00121080201F002F801216020B9
:1012800001F02EF80021012001F02AF84CF2037041
:10129000ADF8580018208DF85B0003208DF85A0037
:1012A00016A9294800F028FB4FF68070ADF85800C9
:1012B00016A9264800F020FB4FF46050ADF8580006
:1012C00016A9214800F018FB7C20ADF8580016A99B
:1012D0001E4800F011FB3020ADF8580016A91A483E
:1012E00000F00AFB8020ADF8580016A9164800F05F
:1012F00003FB00200F901090052011900020129009
:10130000139014901590009001900290102003907B
:10131000002004900690079008904FF480500990A8
:1013200000200A904FF480400B9000200C900FA8F2
:101330000D900E90684600F025F80121002000F085
:1013400007F817B000BD000000140140001801406C
:1013500051B18200A2F1C042126842F00103820042
:10136000A2F1C042136009E08200A2F1C0421268FB
:10137000034B1A408300A3F1C0431A60704700007A
:10138000FEFF0F00D0E901121143C2681143026948
:1013900011434269114382691143C2691143026AD0
:1013A0001143426A1143826A1143C26A1143026BBC
:1013B000114302689200A2F1C042116081680829BD
:1013C0000BD101688900A1F1C041096841F04002D8
:1013D00001688900A1F1C0410A60416B0968426B54
:1013E000526841EA0211426B926841EA0221426B63
:1013F000928941EA0241426B128A41EA0251426BF0
:10140000127D41EA0261426B926911430268521CEB
:101410009200A2F1C0421160C16AB1F5804F1BD1A8
:10142000816B0968826B526841EA0211826B926893
:1014300041EA0221826B128A41EA0251826B127DDB
:1014400041EA0261826B9269114302689200A2F143
:10145000C042C2F8041107E06FF0704201688900D1
:10146000A1F1C041C1F8042170470146480400F1D0
:10147000C04000887047420402F1C04211807047AA
:1014800010B50720FFF7F1FFA5490880A54800889F
:1014900000F48040C0B10846008800F4804048B1A4
:1014A0000120A1490870A148008840F001009F492F
:1014B00008800CE000209C4908709C48008820F0BF
:1014C00001009A49088002E0022097490870954877
:1014D000008800F48050C0B19148008800F480502A
:1014E00048B10120904948709048008840F00200BF
:1014F0008E4908800CE000208B4948708B4800889A
:1015000020F002008949088002E0022086494870E4
:101510008448008800F40060C0B18148008800F46D
:10152000006048B10120804988708048008840F000
:1015300004007E4908800CE000207B4988707B48CD
:10154000008820F004007949088002E002207649F2
:1015500088707448008800F40070C0B1704800883A
:1015600000F4007048B101206F49C8706F480088CE
:1015700040F008006D4908800CE000206A49C870FE
:101580006A48008820F008006849088002E00220CC
:101590006549C8706348008800F48070C0B1604835
:1015A000008800F4807048B101205F4908715F48ED
:1015B000008840F010005D4908800CE000205A4986
:1015C00008715A48008820F010005849088002E04D
:1015D0000220554908715348007800F08000C0B1DE
:1015E0004F48007800F0800048B101204E49487112
:1015F0004E48008840F020004C4908800CE0002054
:10160000494948714948008820F02000474908802E
:1016100002E00220444948714248007800F0080086
:10162000C0B13F48007800F0080048B101203E49B1
:1016300088713E48008840F040003C4908800CE03A
:101640000020394988713948008820F04000374926
:10165000088002E00220344988713248007800F0A6
:101660000400C0B12E48007800F0040048B1012009
:101670002D49C8712D48008840F080002B49088012
:101680000CE000202849C8712848008820F080001C
:101690002649088002E002202349C87121480088B9
:1016A00000F4004010B902201F4908721D4800884C
:1016B00000F40050C0B11E480088B0F5827F09DDFB
:1016C0000120194948721948008840F400701749F0
:1016D00008800CE00020144948721448008820F467
:1016E00000701249088002E002200F4948720E483B
:1016F000C078012807D00C480079012803D00A4897
:10170000407901280BD140210A4800F0D2F980210C
:10171000094800F0CEF90121084800F0CCF910BDCD
:101720007600002092000020DC04002080000020D1
:101730001A00002000140140000C01400018014074
:1017400070B505460C460A2D6FD2DFE805F0051589
:101750002535455565768696012C06D15548008875
:1017600040F480405349088005E05248008820F446
:1017700080405049088091E0012C06D14D480088F6
:1017800040F480504B49088005E04A48008820F426
:1017900080504849088081E0012C06D145480088E6
:1017A00040F400604349088005E04248008820F486
:1017B00000604049088071E0012C06D13D48008856
:1017C00040F400703B49088005E03A48008820F466
:1017D00000703849088061E0012C06D13548008846
:1017E00040F480703349088005E03248008820F4D6
:1017F00080703049088051E0012C06D12D480088C6
:1018000040F080002B49088005E02A48008820F03D
:1018100080002849088041E0012C07D12548008834
:1018200040F008002349088006E036E0214800889F
:1018300020F008001F49088030E0012C06D11D4827
:10184000008840F004001B49088005E01948008822
:1018500020F004001749088020E0012C06D115482B
:10186000008840F400401349088005E011480088D2
:1018700020F400400F49088010E0012C06D10D48EB
:10188000008840F400500B49088005E009480088B2
:1018900020F400500749088000E000BF00BF054861
:1018A000008845F6FF7100EA010631460820FFF77F
:1018B000E2FD70BD9200002030B500228B071C0FA6
:1018C0000F2303FA04F20B4B8C1053F8243093438C
:1018D000084C8D1044F8253023468C1053F82430E2
:1018E0008C07240F00FA04F42343024C8D1044F8B3
:1018F000253030BD080001402DE9F04102460025A9
:101900000026002000230024002791F803C00CF0DB
:101910000F0591F803C00CF0100CBCF1000F03D0C0
:1019200091F802C04CEA050591F800C0BCF1000F27
:1019300031D0146800202BE04FF0010C0CFA00F3BA
:10194000B1F800C00CEA03069E4220D183004FF09C
:101950000F0C0CFA03F7BC4305FA03FC4CEA040431
:1019600091F803C0BCF1280F06D14FF0010C0CFA1E
:1019700000FCC2F814C00AE091F803C0BCF1480FA3
:1019800005D14FF0010C0CFA00FCC2F810C0401C4D
:101990000828D1D31460B1F800C0BCF1FF0F34DDCA
:1019A000546800202EE000F1080C4FF0010808FAFE
:1019B0000CF3B1F800C00CEA03069E4221D183006B
:1019C0004FF00F0C0CFA03F7BC4305FA03FC4CEA8A
:1019D000040491F803C0BCF1280F05D100F1080CF4
:1019E00008FA0CF8C2F8148091F803C0BCF1480F53
:1019F00007D100F1080C4FF0010808FA0CF8C2F802
:101A00001080401C0828CED35460BDE8F08100004F
:101A1000F0B50A46002300240021002500F000460E
:101A2000B6F1004F02D11D4EF16901E01B4E716805
:101A3000C0F3034583B200F44016B6F5401F08D149
:101A400021F07061154E766826F07066134F7E6047
:101A500012E000F48016B6F5801F06D1032606FAC0
:101A600005F4A14341F0706106E0460D360103FA2A
:101A700006F6B14341F0706122B1460D360103FA1A
:101A800006F6314300F00046B6F1004F02D1034E96
:101A9000F16101E0014E7160F0BD00000000014005
:101AA0000246002093680B400BB1012000E00020AB
:101AB00070474161704701617047000010B54FF4F5
:101AC00000712848FFF7F5FF0A20FFF7A2F94FF44D
:101AD00000712448FFF7EFFF0021012000F0B8F863
:101AE0000021022000F0B4F804211F48FFF7E3FFB3
:101AF00040211D48FFF7DFFF012001F0CBFE00F081
:101B0000F9FC00F0EFF91948008845F6FF7100EA8A
:101B1000010421460820FFF7AEFC15480188282063
:101B2000FFF7A9FC134801781348008800F0B6F8C5
:101B30001248007800F018FD1148007800F056FBBC
:101B400042F251010020FFF796FC80210D48FFF77B
:101B5000B2FF01210C48FFF7ACFF80210B48FFF7D3
:101B6000A8FF10BD001001400014014092000020A9
:101B7000940000209C0000209A0000201E000020FD
:101B80001F000020000C0140001801400008014027
:101B900008B50E20ADF8000010208DF803000320DA
:101BA0008DF8020069460248FFF7A6FE08BD000056
:101BB0000010014010B54FF480410D4800F086FC44
:101BC00018B901200B49087002E00020094908708B
:101BD0000948007807490978484003D0054800784B
:101BE00000F0C2FC034800780349087010BD0000F3
:101BF000001001401E000020200000202DE9F041CF
:101C000004460D4600201149087005EBC50040014F
:101C10000A2190FBF1F087B2B7F5805F01DB40F657
:101C2000FF7707EB043086B2002000F0B7FC0120FC
:101C3000FFF7EFF831461120FFF71DFC0120FFF7F9
:101C4000E8F8012000F0AAFCBDE8F081A100002026
:101C50002DE9F04104460F4641F6123078430A213F
:101C600090FBF1F086B2B6F5805F01DB40F6FF76BF
:101C700006EB043085B2002000F090FC0120FFF755
:101C8000C8F829461220FFF7F6FB0120FFF7C1F83C
:101C9000012000F083FCBDE8F08100002DE9F04157
:101CA00004460D4600260027B0461F2C00DA1F24EC
:101CB000094890FBF4F6B7B205F07F01C6F3044083
:101CC00001EBC01839460320FFF7D5FB414604203D
:101CD000FFF7D1FBBDE8F0810090D003F0B5ADB0C7
:101CE000002413E0694830F814001EA921F81400FC
:101CF0006648343030F814000FA921F81400644805
:101D000030F814002DF81400601CC4B2172CE9DB65
:101D1000012624E000251CE01EAB6A1C03EB4201F7
:101D20001EAA02EB450001F005FF0FAB6A1C03EB96
:101D300042010FAA02EB450001F0FCFE6B466A1C53
:101D400003EB42016A4602EB450001F0F3FE681C1A
:101D5000C5B2C6F11700A842DEDC701CC6B2172E51
:101D6000D8DB002605E000204A4921F81600701C47
:101D7000C6B2052EF7DB00241BE0464801881EAAE8
:101D8000E01D32F8100008444249088008464188A6
:101D90000FAAE01D32F8100008443E49488008466A
:101DA0008188E01D3DF8100008443A498880601C95
:101DB000C4B20A2CE1DB374800880A2190FBF1F01D
:101DC00034490880084640880A2190FBF1F03149E7
:101DD0004880084680880A2190FBF1F02D498880D0
:101DE0002A49C98D294A128E881800EBD071C1F397
:101DF0004F01284AD1802549B1F86220B1F864101A
:101E0000501800EBD071C1F34F01224A11811046E6
:101E1000008800EB80004000DA2190FBF1F01E49C1
:101E200008701046408800EB80004000DA2190FBEB
:101E3000F1F01A4908701046808819490880104648
:101E4000C088262148434FF47A7190FBF1F0154980
:101E5000087010460089C0EBC00101EB40104FF440
:101E60007A7190FBF1F0104908702320FFF7FDFA1A
:101E7000074607EBC700000140F6FF7190FBF1F049
:101E80000A49087000F0EEFA2DB0F0BD3C030020C6
:101E900074040020EC0400206B0000206D00002082
:101EA0007C0000206E0000206F00002070000020E9
:101EB00000B50346012B06D10948008840F40070A4
:101EC0000749088006E02BB90548008820F4007017
:101ED00003490880024801880120FFF7CCFA00BDC1
:101EE0002200002010B5002000F058FBFF212C201C
:101EF000FFF7C1FA0B4801881620FFF7BCFA0A4821
:101F000001881620FFF7B7FA084801881D20FFF75F
:101F1000B2FA1620FFF7A9FA0446012000F03EFBB2
:101F200010BD00008C0000208E00002090000020DA
:101F30007CB505460E461C480088A84228DB1A4896
:101F4000B0F87E00A84220DC6A463146284600F000
:101F50002DF8BDF80000A84207D1BDF80400801C90
:101F60004FF6FF7101EA801413E0BDF80000BDF8E0
:101F70000210401A691A890191FBF0F1BDF80400C2
:101F8000801CC1EB801084B203E04FF4825400E067
:101F9000802404EB84014800C11700EB9161C1F378
:101FA0008F1420467CBD00006C460008F0B5044646
:101FB0003F25002300262AE0EF1A07EBD77C03EB2E
:101FC0006C0C0CF0FF0031F81070A74201DA0546E6
:101FD0000FE031F81070A74201DD034609E031F847
:101FE00010701780471C31F817705780471C978076
:101FF0000FE0EF1A012F08D131F81370178031F874
:10200000157057805F1C978003E0771CFEB2072E87
:10201000D2DB00BFF0BD08B54FF4407000F07EF891
:1020200007208DF8000000208DF801008DF80200D7
:1020300001208DF80300684600F038F817208DF86D
:10204000000001208DF80100684600F02FF82620DE
:102050008DF8000002208DF80100684600F026F897
:102060000B208DF8000003208DF80100684600F079
:102070001DF81E208DF8000004208DF80100684630
:1020800000F014F836208DF8000005208DF80100CE
:10209000684600F00BF834208DF8000006208DF81B
:1020A0000100684600F002F808BD000070B500218C
:1020B00000230F22C47804B3154C246804F4E064B0
:1020C000C4F5E064210AC1F10403CA40447804FA6B
:1020D00003F184781440214309010E4C0678A15580
:1020E000047804F01F050124AC4005786D11AD00A3
:1020F00005F1E025C5F8004109E0047804F01F056A
:102100000124AC40044D0678761145F8264070BD98
:102110000CED00E000E400E080E100E00249014352
:10212000024A1160704700000000FA050CED00E063
:1021300008B501217C2000F0D3F810208DF80300B1
:1021400003208DF802008020ADF800006946224887
:10215000FFF7D2FB4FF4B860ADF8000069461F48A6
:10216000FFF7CAFB40F20E20ADF8000069461C489C
:10217000FFF7C2FB4C20ADF8000069461948FFF795
:10218000BBFB0120ADF8000069461748FFF7B4FB20
:1021900048208DF8030003208DF802004FF46040C2
:1021A000ADF8000069460E48FFF7A6FB0220ADF827
:1021B000000069460C48FFF79FFB80210648FFF7A7
:1021C0007AFC4FF480710548FFF775FC4FF480618D
:1021D0000248FFF770FC08BD00080140000C0140F8
:1021E00000100140001401400018014010B50446E1
:1021F0001B48008820F00600194908802CB90846C1
:10220000008820F00600088019E0012C06D114484F
:10221000008840F002001249088010E0022C06D12C
:102220000F48008840F004000D49088007E0032CA7
:1022300005D10B48008840F0060009490880032CAE
:1022400004D108210748FFF734FC03E008210548C2
:10225000FFF731FC024801880120FFF70CF910BD9F
:10226000220000200014014001460020034A50686B
:1022700020F44040084350607047000000100240C6
:1022800029B1064A52690243044B5A6104E0034AE9
:1022900052698243014B5A617047000000100240AE
:1022A00029B1064AD2690243044BDA6104E0034AC9
:1022B000D2698243014BDA6170470000001002408E
:1022C00029B1064A12690243044B1A6104E0034A29
:1022D00012698243014B1A617047000000100240EE
:1022E00029B1064A92690243044B9A6104E0034A09
:1022F00092698243014B9A617047000000100240CE
:1023000029B1064AD2680243044BDA6004E0034A6A
:10231000D2688243014BDA6070470000001002402F
:1023200030B500210022002400232D4D6D6805F0FA
:102330000C0121B1042905D0082923D105E0294D3C
:10234000056022E0274D05601FE0254D6D6805F40E
:102350007012234D6D6805F48034022505EB92421E
:102360001CB9214D554305600BE01D4D6D6805F40A
:1023700000351DB11C4D5543056002E0194D554314
:10238000056002E0174D056000BF00BF144D6D6889
:1023900005F0F0010909154D6B5C0568DD404560ED
:1023A0000F4D6D6805F4E061090A104D6B5C4568DE
:1023B000DD4085600A4D6D6805F46051C90A0B4D1A
:1023C0006B5C4568DD40C560054D6D6805F44041B6
:1023D000890B074D6B5CC568B5FBF3F5056130BD36
:1023E0000010024000127A0000093D00C6020020E1
:1023F000D602002001B505E0002001E0411C88B2B2
:102400000728FBDBBDF800104A1E92B2009200299B
:10241000F2D108BD70B505460C46072D1AD2DFE88B
:1024200005F004070A0D101316000D48047012E0A1
:102430000B4844700FE00A4884700CE00848C470F0
:1024400009E00748047106E00548447103E00448C8
:10245000847100E000BF00BFFEF740FD70BD0000CA
:10246000AC00002070B500241BE0002515E005F14C
:10247000380104EBC40202EB04128818FEF7F5FFE2
:10248000C0F30B0004EB840101EBC401064A02EB2C
:10249000810121F81500681CC5B2192DE7DB601C0D
:1024A000C4B2082CE1DB70BD3C03002010B502462D
:1024B000054B002005E01C8822F810409B1C441CA2
:1024C000E0B28842F7DB10BD0000040870B5044696
:1024D0000D4629462046FFF7E3FA012808D1294690
:1024E0002046FFF7DDFA012800D170BD0020FCE78F
:1024F0000020FAE710B58AB028216846FDF73BFEB8
:10250000002409216846FFF7D1FFBDF800000F49FC
:102510000880BDF802000E490880BDF804000D498E
:102520000880BDF806004FF68C3108400A49088043
:10253000BDF8080009490880BDF80A00084908806C
:10254000BDF80C00074908700AB010BD8C000020CF
:102550008E000020900000209200002094000020B7
:102560009A0000209C00002000B50346012B06D1F4
:102570000948008840F400400749088006E02BB96C
:102580000548008820F4004003490880024801887B
:102590000120FEF770FF00BD2200002000B50346B9
:1025A0003BB9154800884EF2FF7108401249088077
:1025B0001CE0012B0CD1104800884EF2FF7108403E
:1025C0000D4908800846008840F4006008800DE04E
:1025D000022B0BD1084800884EF2FF7108400649D3
:1025E00008800846008840F480500880024801882E
:1025F0000120FEF740FF00BD2200002010B500F0D2
:1026000001F810BD0CB5002001900090334800681F
:1026100040F480303149086000BF3048006800F461
:10262000003000900198401C0190009818B9019862
:10263000B0F5A06FF1D12948006800F4003010B166
:102640000120009001E0002000900098012843D173
:102650002348006840F010002149086008460068DF
:1026600020F0030008600846006840F0020008609F
:102670001A4840681949486008464068486008465A
:10268000406840F4806048600846406820F47C1050
:1026900048600846406840F4E81048600846006812
:1026A00040F08070086000BF0C48006800F00070C7
:1026B0000028F9D00948406820F003000749486025
:1026C0000846406840F00200486000BF0348406888
:1026D00000F00C000828F9D10CBD000000100240E9
:1026E0000020024010B50220FEF7BFFE60490880BE
:1026F000084600885F490988484000287DD05C482A
:10270000008800F4004048B101205B4908705B4834
:10271000007840F001005949087008E0002056494F
:1027200008705648007820F001005449087050485D
:10273000008800F4804048B101204F4948704F485C
:10274000007840F002004D49087008E000204A4936
:1027500048704A48007820F0020048490870444810
:10276000008800F4005048B1012043498870434874
:10277000007840F004004149087008E000203E491C
:1027800088703E48007820F004003C4908703848C2
:10279000008800F4805048B101203749C87037489C
:1027A000007840F008003549087008E00020324900
:1027B000C8703248007820F00800304908702C4872
:1027C000008800F4006048B101202B4908712B48B3
:1027D000007840F010002949087008E000202649E0
:1027E00008712648007820F0100024490870244819
:1027F0000078A8B91E48007800E01FE000F0400013
:1028000038B103201F49087008460078FFF7EEFC36
:1028100006E002201B49087008460078FFF7E6FC36
:102820001348008800F4807020B180211648FFF71B
:1028300040F903E080211448FFF73DF91148007882
:10284000032803D101200C49487102E000200A4905
:1028500048710B480078012802D10749887102E0CD
:10286000002005498871024800880249088010BD8F
:10287000780000209E0000208300002082000020BD
:102880001E0000201F0000200008014010B5134862
:10289000006840F00100114908600846406810498E
:1028A00008400E494860084600680E4908400B4938
:1028B00008600846006820F48020086008464068E8
:1028C00020F4FE0048604FF41F008860FFF796FE7A
:1028D0004FF000600449086010BD00000010024085
:1028E0000000FFF8FFFFF6FE08ED00E000B503462C
:1028F000012B06D10948008840F480700749088000
:1029000006E02BB90548008820F480700349088050
:10291000024801880120FEF7AEFD00BD2200002024
:102920000EB501211020FFF7BBFC40F2E730ADF8F7
:10293000040041F61F40ADF800000020ADF806008D
:10294000ADF802008DF808006946084800F0D6F896
:102950000121064800F054F801221146034800F016
:1029600072F80121014800F051F80EBD001000403E
:1029700010B50121184800F055F838B30121164868
:1029800000F041F815480088401C1449088014489C
:102990000088022804DA12480088401C1049088088
:1029A00010480078012812D10C480088052803D16E
:1029B000002000F0B3FE0DE0084800880A2809D185
:1029C000002006490880012000F0A8FE02E0002057
:1029D0000249088010BD000000100040A400002043
:1029E000A60000201E00002021B1028842F08002D3
:1029F000028004E002884FF67F731A40028070471D
:102A0000CA4302827047CA430282704721B10288DA
:102A100042F00102028004E002884FF6FE731A4081
:102A20000280704730B50246002000230024158A3A
:102A300005EA0103958905EA010413B10CB10120EF
:102A400000E0002030BD1AB183890B43838102E08E
:102A500083898B438381704770B500240022002353
:102A6000058C4FF6EF7635400584028C8388048B05
:102A700048F6FF752C404FF6FF452C400D884FF669
:102A8000FF7606EA05252C434FF6DF752A400D89AF
:102A900006EA05152A434D8806EA05152A43154D11
:102AA000A84202D0144DA8421DD14FF67F752A408E
:102AB0004D894FF6FF7606EA05152A434FF6BF7596
:102AC0002A408D8806EA05152A434FF6FF352B402C
:102AD0004FF2FF752B408D8906EA85052B43CD8982
:102AE00006EA85052B4383800483CD88058702840D
:102AF00070BD0000002C014000340140002202881B
:102B00001D4B98420ED01D4B98420BD0B0F1804F18
:102B100008D01B4B984205D01A4B984202D01A4B52
:102B2000984204D14FF68F731A404B881A43174BC3
:102B3000984207D0164B984204D04FF6FF431A40F4
:102B4000CB881A4302808B8883850B8803850A4BC8
:102B500098420BD0094B984208D00E4B984205D0B2
:102B60000D4B984202D00D4B984201D10B7A03864F
:102B70000123838270470000002C01400034014093
:102B80000004004000080040000C0040001000401D
:102B90000014004000400140004401400048014052
:102BA0004FF6FF71818000210180C1804180017258
:102BB0007047000070B58CB0002000900190002498
:102BC0000EE0364830F8140007A921F81400334805
:102BD000143030F8140002A921F81400601CC4B2AB
:102BE0000A2CEEDB01261BE0002513E007AB6A1C74
:102BF00003EB420107AA02EB450000F09BFF02AB8A
:102C00006A1C03EB420102AA02EB450000F092FFAE
:102C1000681CC5B2C6F10A00A842E7DC701CC6B247
:102C20000A2EE1DB002415E0BDF8001007AAE01C25
:102C300032F81000084480B2ADF80000BDF8021070
:102C400002AAE01C32F81000084480B2ADF802007D
:102C5000601CC4B2052CE7DBBDF80000052190FB29
:102C6000F1F080B2ADF80000BDF8020090FBF1F089
:102C700080B2ADF80200BDF800000949FFF758F92D
:102C800008490880BDF80200AF21484340F63511DD
:102C9000B0FBF1F0044908800CB070BD00050020C5
:102CA0006C460008180000201A00002010B540F201
:102CB00025511C4800F055FC90B31A4800F00CFD5B
:102CC000194908701948007890B9084600787E289C
:102CD0000AD108460178154802780078401C134B49
:102CE0001870134881541BE000201049087017E049
:102CF0000D4801780D4802780078401C0B4B187085
:102D00000B48815408480078E72809D10120094977
:102D100008701846007808490870002019460870A5
:102D200010BD0000004C00402500002027000020BE
:102D30002A000020290000205C0000202DE9FF4728
:102D40000024A046A246FE4890F80190FD48007875
:102D500001287DD1A9F1A1000F287AD2DFE800F087
:102D6000080E1F223136394C607F87A8A8A89F0023
:102D7000F34885782846FFF7B9FD9AE0F048807857
:102D8000012804D10121F048FFF740FE06E0EC489D
:102D9000807818B90021EC48FFF738FE89E0FEF78B
:102DA0008DFE86E0E6488078E8490870E448C078FF
:102DB000E749087008460178E4480078FEF7C0FC4F
:102DC00077E0DF488078E349087072E000F0D2FDD8
:102DD0006FE0DB488078E0490870D948C078DF4967
:102DE0000870DD4801780120FEF708FFDB48017814
:102DF0000220FEF703FF5CE0D1488078D8490870D4
:102E0000CF480179C07801EB0020D6490880D4482A
:102E10000178D4480088FEF741FF00F0ABFD48E0A0
:102E2000C748C178807801EB0020CF490880084668
:102E30000088B0F5667F11DD0846008840F26741E2
:102E400088420BDAC8480088C8490880084601E073
:102E500030E02DE001882820FEF70DFB29E0B8487E
:102E60008678C77839463046FFF7D4FA21E0B4486F
:102E7000C178807801EB0020BD490880B0484179D5
:102E8000007901EB0020BB490880AD48C179807909
:102E900001EB0020B8490880FFF724F809E0A848B2
:102EA0008078B649087008460078FFF79FF900E07F
:102EB00000BF8BE1A34800780028FAD1A0484078F1
:102EC00001287DD19E48C0789D49897840EA012833
:102ED00006219B4800F012FE0446994880799849E3
:102EE000C97940EA0120A04279D19A4800780128A6
:102EF00006D1A348008840F48850A149088008E022
:102F00009448007828B99E48008820F488509C494D
:102F100008809C48007800F0200030B19848008874
:102F200040F400709649088005E09548008820F438
:102F30000070934908809348007800F0080030B191
:102F40008F48008840F480608D49088005E08C48F7
:102F5000008820F480608A4908808A48007800F060
:102F6000100030B18648008840F400608449088031
:102F700005E08348008820F400608149088070489B
:102F800000788DF800006E4840788DF8010002202E
:102F90008DF802007A48008800128DF80300784806
:102FA00000788DF804000521684600F0A7FD04466E
:102FB0002046E11704EB11610912A4EB012100E0A6
:102FC0000DE0C9B28DF80510E11704EB1161090A93
:102FD0008DF80610072269466B4800F086FB5848BA
:102FE000407805282BD15648C0785549897840EA61
:102FF00001280621524800F081FD0446504880799E
:103000004F49C97940EA0120A04218D1B8F1000F18
:103010000BD14B480079FF2803D101204D4908709E
:1030200002E000204B49087000E000BF00BF08220A
:103030004349554800F059FB00204B49088040485F
:103040004078032847D13E48C0783D49897840EA16
:10305000012806213A4800F051FD0446384880799D
:103060003749C97940EA0120A04234D13448007878
:103070008DF80000324840788DF8010004208DF86A
:1030800002003848008800128DF8030035480078A7
:103090008DF8040000208DF80500314800788DF887
:1030A00006000721684600F029FD04462046E11786
:1030B00004EB11610912A4EB0121C9B28DF80710CC
:1030C000E11704EB1161090A8DF80810092269461D
:1030D0002D4800F00AFB1A484078062876D1184897
:1030E000C0781749897840EA01280621144800F081
:1030F00005FD0446124880791149C97940EA01204A
:10310000A04263D1B8F1010F03D0B8F1020F51D141
:103110003FE00B4840790A49097940EA012011490A
:1031200008800846008842F21071884202DD084695
:103130000C4908800A4801780A48008826E0000007
:10314000E00200201E000020000400409600002045
:10315000970000207A0000206A0000206C00002008
:103160009C0000209A0000206000002094000020B5
:103170008C0000208E000020900000201F00002006
:10318000620000208000002000440040FEF786FD21
:1031900011E00F4840790F4908700846007864280C
:1031A00001DD642008700B4801780B480088FEF7A9
:1031B00075FD00E000BF00BF00F0DCFB0822044901
:1031C000064800F092FA002005490880BDE8FF8714
:1031D000E00200209C0000209A00002000440040F3
:1031E0006000002010B540F22551334800F0B9F9D5
:1031F000002860D0304800F06FFA3049087030483D
:10320000007801282AD12F48007890B90846007824
:103210007E280AD1084601782A4802780078401CA6
:10322000284B18702848815445E000202549087033
:1032300041E022480278234801780078401C214B65
:103240001870214842541D480078E72833D10120E6
:103250001E4908700020194608702CE018480078B4
:1032600048BB1848007890B91448007802280AD161
:1032700012480178134802780078401C114B1870EE
:103280001148815417E000200E49087013E00B48E4
:1032900002780C4801780078401C0A4B18700A48E4
:1032A000425418460078082805D1012007490870C3
:1032B00000201946087010BD004400402400002082
:1032C0001E00002026000020E00200202800002030
:1032D0002DE9FC5F002000900024324840780190E6
:1032E00031480078C01E00F0FF0926E02E49097819
:1032F000C91EA1EB0900FCF749FF07463A460B46F9
:1033000000202A4900F09CFC0546FCF750FF1FFAFC
:1033100080FA25480178891E0098421CD2B2081A0A
:1033200020490092085C30381FFA80FB0BFB0A40F2
:1033300084B2A9F1010000F0FF09B9F1000FD5DC5A
:103340000198D12804D0D2280BD0D32826D110E060
:10335000174804801748017815480088FEF79EFC3E
:103360001DE014480480017811480088FEF796FC9F
:1033700015E0C4EB0410C0EBC4104FF4FA7190FBDD
:10338000F1F084B2732C00DD7324E1B20120FEF76A
:1033900035FCE1B20220FEF731FC00E000BF00BFC7
:1033A000BDE8FC9F2A0000205C00002000002440B3
:1033B000660000206400002021B1828942F400529E
:1033C000828104E082894DF6FF731A408281704742
:1033D00000B585B0314800F069F801214FF4202094
:1033E000FEF75EFF01211420FEF77AFF0420ADF8FE
:1033F000100018208DF8130003208DF8120004A986
:103400002748FEF779FA4FF48060ADF8100004A960
:103410002448FEF771FA0820ADF8100004208DF85A
:10342000130004A91E48FEF767FA4FF40060ADF8D8
:10343000100004A91B48FEF75FFA4FF416500090E5
:103440000020ADF80400ADF80600ADF80800ADF8B6
:103450000C000C20ADF80A006946104800F0D0F8C6
:103460004FF41650009069460F4800F0C9F8012249
:1034700040F22551094800F09EF8012240F2255102
:10348000094800F098F801210448FFF795FF012151
:103490000548FFF791FF05B000BD00000044004063
:1034A0000008014000100140004C004010B50446E7
:1034B0002048844209D101218803FEF721FF002121
:1034C0004FF48040FEF71CFF32E01B48844209D1D4
:1034D00001214804FEF7F4FE00214FF40030FEF70E
:1034E000EFFE25E01548844209D101218804FEF74A
:1034F000E7FE00214FF48020FEF7E2FE18E01048BE
:10350000844209D10121C804FEF7DAFE00214FF4FC
:103510000020FEF7D5FE0BE00A48844208D10121C5
:103520000805FEF7CDFE00214FF48010FEF7C8FE1F
:1035300010BD000000380140004400400048004039
:10354000004C00400050004002460020B1F5007FD2
:1035500000D100BF13880B400BB1012000E0002018
:10356000704770B50246002400230025002040F675
:103570006A16B14200D100BFC1F3421501F01F032A
:10358000012606FA03F3012D02D19689334006E0A5
:10359000022D02D1168A334001E0968A33400C1284
:1035A000012606FA04F41688344013B10CB1012048
:1035B00000E0002070BDF0B5034600240026002581
:1035C000002040F66A17B94200D100BF1846C1F387
:1035D000421401F01F06012707FA06F5012C01D15C
:1035E0000C3004E0022C01D1103000E014301AB18C
:1035F00007682F43076002E00768AF430760F0BD2C
:103600002DE9F04786B005460E460024A24600BFCD
:10361000A1460027B08900B100BF2F462C8A4CF686
:10362000FF700440F08804432C82AC894EF6F310FE
:103630000440B08831890843718908430443AC8150
:10364000AC8A4FF6FF400440B0890443AC8201A825
:10365000FEF766FE1F48874202D1DDF810A001E0A8
:10366000DDF80CA0A88900F4004040B10AEBCA00C4
:1036700000EB0A1031684900B0FBF1F807E00AEBF3
:10368000CA0000EB0A1031688900B0FBF1F8642031
:10369000B8FBF0F004012009642101FB1089A8891E
:1036A00000F4004040B1322000EBC900B0FBF1F063
:1036B00000F00700044308E0322000EB0910642109
:1036C000B0FBF1F000F00F0004432C8106B0BDE820
:1036D000F08700000038014001468888C0F30800E8
:1036E0007047C1F30802828070472DE9F041074618
:1036F0000D46164600240CE0295D3846FFF7F1FF21
:1037000000BF40213846FFF71FFF0028F9D0601C9A
:10371000C4B2B442F0DBBDE8F081000010B504464D
:103720007E204C490870002C4ED1B12048704A4888
:103730000078887049480078C87049480078087156
:103740004848007848714848008800128871464807
:103750000078C87145480088001208724348007814
:103760004872434800880012887241480078C87245
:1037700040480088001208733E48007848733D486E
:103780004088001288733B488078C8733948808825
:1037900000120874374800794874374800880012CE
:1037A000887435480078C874344800880012087559
:1037B000324800784875324800788875314800787A
:1037C0000877E720487739E0012C37D1B22021492A
:1037D00048702D48007888702B484078C8702A4877
:1037E000807808712848C078487127480079887126
:1037F00025484079C8712448807908722248C079E8
:1038000048722148007A88721F48407AC8721F485F
:10381000007808731D48407848731C488078887386
:103820001A48C078C8731948007908741748407955
:103830004874164880798874E72048771E22054925
:103840001348FFF752FF0F48007810B901200D49C7
:10385000087010BD120300206B0000206E000020D5
:103860006D0000206F000020180000209400002050
:103870001A000020EC040020C2000020C400002038
:103880007000002068000020DC040020830000207D
:103890000044004000B50346012B06D109480088CA
:1038A00040F001000749088006E02BB90548008870
:1038B00020F0010003490880024801880120FDF73B
:1038C000DAFD00BD2200002010B50446012C10D105
:1038D000FEF7EEFA0120FFF709F80A20FDF799FA42
:1038E00014210120FEF7B4F914210220FEF7B0F9EB
:1038F0000BE054B90020FEF7DBFA00210120FEF7AF
:10390000A7F900210220FEF7A3F910BDF8B505467E
:103910000E460024164F04200090FDF789FC352048
:10392000FDF716FC3846FDF719FC00909DF80000E5
:10393000042813D100BF08E035F814103846FDF70D
:1039400057FC0090BF1C601CC4B2B44203DA9DF85F
:1039500000000428F0D0FDF741FC01E00020F8BD94
:103960009DF80000042801D10120F8E70020F6E7C7
:103970000000040800B58BB0282101A8FCF7FBFB70
:1039800013480088ADF8040012480088ADF806001E
:1039900011480088ADF8080010480088ADF80A000A
:1039A0000F480088ADF80C000E480088ADF80E00F6
:1039B0000D480078ADF810000020ADF81200ADF809
:1039C0001400092101A8FFF7A1FF0BB000BD000002
:1039D0008C0000208E00002090000020920000202B
:1039E000940000209A0000209C000020490050EA2A
:1039F000C12018BF04204A0D18BF40F0010040F25A
:103A0000FF72B2EB515F08BF40F00200012808BF0F
:103A1000052070472DE9F0414F1E00EBC701044619
:103A2000D1E9000115461E4637F006020DD02A46A0
:103A30003346FCF7EBFC7F1E04EBC703D3E90023FE
:103A4000FCF73DFC37F00602F1D1022F25D0042F00
:103A500013D0062F18BFBDE8F0812A463346FCF785
:103A6000D5FCD4E90A23FCF72AFC2A463346FCF7A6
:103A7000CDFCD4E90823FCF722FC2A463346FCF7A8
:103A8000C5FCD4E90623FCF71AFC2A463346FCF7AA
:103A9000BDFCD4E90423FCF712FC2A463346FCF7AC
:103AA000B5FCD4E90223FCF70AFC2A463346FCF7AE
:103AB000ADFCD4E90023BDE8F041FCF700BC0000F8
:103AC000024A00201107FCF782BD000001FDFFFF44
:103AD00002E008C8121F08C1002AFAD170477047D7
:103AE000002001E001C1121F002AFBD17047000035
:103AF0000149086070470000DC02002070B50246F2
:103B00000C46FF25FF2309E012F8010B80EA0501AE
:103B10000648405C80EA03050548435C2000A4F1A8
:103B20000106F4B2F0D145EA032070BDC6000020C2
:103B3000C601002010B503880C88A34203DD02886B
:103B40000B8803800A8010BD4FF47A70FDF761F98D
:103B5000FEF7EEFAFDF78CFBFFF73AFCFEF75BFA97
:103B6000FCF712FEFEF7DCFEFDF746FAFDF7A6FFB6
:103B700053E0012029490870FDF782FC28480078AD
:103B8000012804D1FFF7DAF80020254908702548FC
:103B90000078012804D1FFF79BFB00202149087021
:103BA00021480088022804D1FEF798F800201E4919
:103BB00008801E480078012808D1FEF7FBFF00208E
:103BC0001A49087001211A48FCF7C5FEFEF78AFD64
:103BD000FDF7F0FF1748007801280DD1164800784E
:103BE00050B90120FFF770FE04211448FDF761FF72
:103BF00001201149087010E00E48007868B90E489D
:103C00000078012809D10020FFF75EFE04210B484F
:103C1000FDF751FF002008490870AAE715000020B1
:103C20002800002029000020A6000020A00000207D
:103C3000002401407A00002004000020001401400C
:103C40002DE9F04D16460F460546020094B01C467D
:103C500021F0004123F0004014BF4FF0010C4FF061
:103C6000000C0CEB470CFE4B0CEB03084FEA630C0B
:103C7000E0452DD35FEA060818BF4FF0010808EBB6
:103C800044089844F74B984522D3F74B50EA060C6A
:103C900002D09F4205D14AB914B000201946BDE8B0
:103CA000F08D002A08BF4FF0000C01D04FF0010C3E
:103CB0000CEB470313F5001F0AD8002E14BF4FF07A
:103CC000010C4FF0000C0CEB440313F5001F08D956
:103CD00014B03246234628463946BDE8F04DFCF77D
:103CE000EEBADFF888B34FF0000A002FB8BF58458E
:103CF00023DADF4B9842A8BF4FF0020A1DDADA4BF5
:103D000083421ADCDB4B03EB2053142B08DDC3F199
:103D1000340C26FA0CF303FA0CFCB4450DD108E080
:103D20005EB9C3F1140C20FA0CF303FA0CFC8445C1
:103D300003D103F00103C3F1020A51EA020321D1C6
:103D4000002C1FDA002F18BFBAF1020F02D0BAF10F
:103D5000010F0BD00220FFF7CBFE14B00022BDE80C
:103D6000F04D13461046C049FCF7C2BB0220FFF7D6
:103D7000BFFE14B02A463B46BDE8F04D0020BA49CC
:103D8000FCF7B6BB33006DD1584525D107F1804013
:103D900010F5801001BF002A0020B34914B008BFFD
:103DA000BDE8F08DB048884207DC002CA1BF184662
:103DB000214614B0BDE8F08D07E0002CBFBF1846C7
:103DC00084F0004114B0BDE8F08DAB497944D1E9ED
:103DD000000114B0BDE8F08DDFF88CC2604526D13B
:103DE000002C1FDA19B1594513D1DAB90AE0002ABB
:103DF00040F0DA829D4A394614B0002062F31E0179
:103E0000BDE8F08D0020394614B060F31E01BDE816
:103E1000F08D07DA14B03B46BDE8F04D0020614656
:103E2000FCF766BB14B010463946BDE8F08D594525
:103E300018DAB4F1804F0DD0A4F10053B3F1FF5361
:103E400010D13B1E0EDB14B01046BDE8F04D1946F4
:103E500000F0E6BB3B4614B01046BDE8F04D1946F5
:103E6000FCF7D4BA27F00043A2BBE1B1594538D1E1
:103E7000002F06DD002CA1BF0020594614B0BDE87C
:103E8000F08D002F01DD002C1FDB002F16DA002C37
:103E900014DBBAF1010F4FF0000014BF73497749EA
:103EA00014B0BDE8F08DBAF1020F18BF002F0CD08E
:103EB000BAF1010F09D1002F07DA0CE0002FB8BFCB
:103EC000002C0EDABAF1010F05D0002014B0014623
:103ED000BDE8F08D05E014B000204FF00041BDE8D2
:103EE000F08D4FF0010C0CEBE7720D9252EA0A02D2
:103EF0000BD0634A90427DDD624B634A984216DDE7
:103F00008A420EDB002C1CDB2CE00120FFF7F0FDC9
:103F100014B00022BDE8F04D134610461146FCF7E0
:103F2000E7BA5148884202DC002C0ADC1AE09142D0
:103F300002DA002C16DA04E04B4B99421EDD002C0D
:103F400010DD0220FFF7D4FD40F2013200204FF0D7
:103F5000E041FCF73CFB454A14B061F31E021146F8
:103F6000BDE8F08D0220FFF7C3FDFFF7A9FD3E4A33
:103F700014B061F31E021146BDE8F08D0022284600
:103F80003946FCF73DFA054688466FF00102FCF71A
:103F90001EFB4FF055323D4BFCF735FA2A4643469F
:103FA000FCF734FA00223A4BFCF72DFA07468B4611
:103FB0002A46434610461946FCF728FA3A465B461D
:103FC000FCF724FA09910C904FF0C042314B28467F
:103FD0004146FCF71BFA07468B462F4A2D4B0999A1
:103FE0000C98FCF713FACDE901102C4A2C4B28460B
:103FF000414600E019E0FCF709FADDE90132FCF77F
:10400000FFF93A465B4605910890FCF758F9002500
:1040100088463A465B462846FCF7F2F9059B089A23
:10402000FCF7F1F9024600F076B90020B1F5801FE7
:1040300007DA352228461946FCF7C9FA05466FF01B
:10404000340000EB2150A0F2FF300190C1F31300C7
:1040500040F07F6141F0405102911249884223E0D3
:10406000FFFF1F00FFFF0F000000F03F0000F07F88
:104070000000404301FCFFFFA80900000000F0FF22
:104080000000E0410000F043FFFFEF3F5555D53FF2
:104090000000E03F4715F73FFE822B6544DF5DF8E7
:1040A0000BAE543E8E980300D8BF4FF0000B0EDDD0
:1040B000FE498142C8BF4FF0010B08DC01984FF068
:1040C000000B401C01900298A0F580100290F84867
:1040D0000299784400EBCB000B911090D0E90023BB
:1040E0002846FCF78DF9009010980791D0E900233D
:1040F00028460B99FCF7E3F802460B460020ED49F1
:10410000FCF7F6F905910B460246089007990098CE
:10411000FCF77CF90690E848884600277844029925
:1041200000680E904FF0005040EA610000EB8B40B9
:1041300000F5002110980291D0E900230E98FCF7B9
:104140005FF92A460B9BFCF75EF93A464346FCF7BB
:104150005DF905460B9138464146029B0E9AFCF7E5
:1041600055F9079B009AFCF74EF92A460B9BFCF782
:1041700047F9059B089AFCF749F90B911090069AAC
:10418000434610461946FCF741F905460246CB481E
:104190000B46009106217844FFF73CFC009B2A4621
:1041A0000291089010461946FCF730F9029B089AD4
:1041B000FCF72CF905460591434638461946069A00
:1041C000FCF77DF80B9B109AFCF720F92A46059B1B
:1041D000FCF775F83A464346059108901046194693
:1041E000FCF714F90022B64B00910C90FCF767F82D
:1041F000059B089AFCF763F80D463A46B04B3846E3
:10420000FCF7FEF8009B0C9AFCF7FAF8059B089A5D
:10421000FCF7F9F811913A460C902B4610464146AE
:10422000FCF7F4F8079100904346069A11990C9810
:10423000FCF7ECF8804603912B463A460B99109810
:10424000FCF7E4F84246039BFCF739F805918046F9
:104250000B46024607990098FCF731F800200F46FC
:104260000546079B009AFCF7CBF84246059BFCF7F6
:10427000CAF8804609914FF06042924B2846394671
:10428000FCF7C4F8009102908F4A8E4B4046099982
:10429000FCF7BCF8804603918C4A8D4B2846394682
:1042A000FCF7B4F84246039BFCF709F8894A7A44C4
:1042B00002EBCB03D3E90023FCF701F8069003914E
:1042C0000198FBF763FF0746DDE902030591069AB3
:1042D0000099FBF7F4FF804A7A4402EBCB0BDBE951
:1042E0000023FBF7ECFF3A46059BFBF7E8FF0025B0
:1042F00088463A462846059BFCF782F8DBE900230E
:10430000FCF77EF8009B029AFCF77AF8039B069A6A
:10431000FCF779F80246002006900D98654FAAF147
:104320000103184301D16D4F069000200B46009009
:1043300030462146FCF76AF882468B4623463046D3
:104340001946009AFCF75CF82A464346FCF75EF8EB
:1043500052465B46FBF7B3FF06468A462A4643466B
:1043600021460098FCF752F804460D463246534663
:10437000FBF7A5FF5A4A8B46914226DBABEB0203C3
:1043800053EA000210D122462B46FCF739F880464A
:104390000591544A544B30465146FBF790FF424634
:1043A000059BFCF72BF930D20220FFF7A1FB40F26E
:1043B000013200204FF0E041FCF709F90A46394686
:1043C00014B062F31E01BDE8F08D484B2BF00042A3
:1043D0009A421AD3464A0BEB020353EA000208D171
:1043E00022462B46FCF70CF832465346FCF706F9FA
:1043F0000BD80220FFF77CFBFFF762FB0A46394629
:1044000014B062F31E01BDE8F08D2BF00040394975
:10441000394A01EB20514FF00008824223DA481C50
:104420004FF4801121FA00F05844C0F30A51334A86
:10443000A1F2FF317A44324B1268CB4020EA0303E9
:10444000C0F3130040F4801CC1F114002CFA00F8F2
:10445000BBF1000FB8BFC8F1000820462946FBF7A2
:10446000CFFF04460D4622462B4630465146FBF709
:1044700026FF4FF0000B5A46224B58460591FBF79A
:10448000C5FF00900791204A204B58460599FBF73D
:10449000BDFF0491029022462B4658460599FBF732
:1044A000AFFF32465346FBF7AEFF31E07AB60B0062
:1044B0001A0600000000F03F5806000086050000C4
:1044C0000000084009C7EE3FFD033ADCF5015B142C
:1044D000E02F3EBE5E040000240400000000F0BF98
:1044E00000009040FE822B654715973C00CC904021
:1044F00000346F3F01FCFFFF0000E03F400300007D
:10450000FFFF0F00432EE63F396CA80C615C20BE14
:104510003F4A404BFBF77AFF049B029AFBF7CFFE22
:1045200006468A46079B009AFBF7C9FE04460D46DD
:10453000079B009AFBF764FF32465346FBF763FF85
:10454000064622462B46099110461946FBF75EFFA8
:104550008346024630488A460B4605217844FFF7D9
:1045600059FA5A465346FBF751FF22462B46FBF7B2
:104570004AFF82468B46324620462946099BFBF776
:1045800045FF3246099BFBF79AFE059108900022F1
:104590004FF0804350465946FBF732FF06460091E4
:1045A00052465B4620462946FBF730FF3246009BC9
:1045B000FBF79EFF059B089AFBF722FF22462B463E
:1045C000FBF71EFF0022154BFBF71DFF0D460446AF
:1045D00001EB08510815002810DC42462046294608
:1045E000FBF7F5FFFFF702FA042808BFFFF768FAA8
:1045F000424620462946FBF7EAFF044606980B464A
:1046000014B022463946BDE8F04DFBF7FFBE00006E
:10461000EF39FAFE422EE63FF00100000000F03FC5
:104620002DE9F04106460F46FCF72FF804000D4631
:1046300018BF0120284320F00040C0F17F6000F146
:10464000E040C00F0ED0301C18BF0120384320F0CE
:104650000040C0F17F6000F1E040C00F04BF0120C6
:10466000FFF746FA20462946BDE8F081620DD40CDA
:104670004D0CCA0B4F0BD90A680AFE09960931097D
:10468000DF0890084208F707B0076A072707E70620
:10469000A8066E064E063306FB0592055F0530053B
:1046A0000005D304A9047E0455042F040904E4037F
:1046B000C203A0037F036003420323030803ED0248
:1046C000D202B902A002880272025C0246023202E1
:1046D0001D020A02F901E701D501C501B601A501D4
:1046E000960189017B016D01610153010000000009
:1046F000000000000000F03F000000000000F83F54
:1047000000000000000000000000004003B8E23F8D
:10471000000000000000000006D0CF43EBFD4C3E3F
:10472000033333333333E33FFFAB6FDBB66DDB3F34
:104730004D268F515555D53F01411DA96074D13F7C
:1047400065DBC9934A86CD3FEF4E454A287ECA3F76
:104750003E5555555555C53F93BDBE166CC166BFF8
:104760002CDE25AF6A56113FF16BD2C541BDBBBEF1
:10477000D0A4BE726937663E000000000000000051
:10478000A047000800000020E00200002C070008FD
:1047900000490008E002002048060000E03A000856
:1047A00061F008020306020802061AC819A10009EE
:1047B0002B7ED13132383734E7032D326415B28A7B
:1047C000B29A063184BF029A032808C1814001C011
:1047D000804104690C2908E918A91C091A30091636
:1047E00038093660092E70092F6000FF00C0C10132
:1047F000C30302C2C60607C705C5C404CC0C0DCD51
:104800000FCFCE0E0ACACB0BC90908C8D81819D9C0
:104810001BDBDA1A1EDEDF1FDD1D1CDC14D4D515F0
:10482000D71716D6D21213D311D1D010F03031F1E0
:1048300033F3F23236F6F737F53534F43CFCFD3D10
:10484000FF3F3EFEFA3A3BFB39F9F83828E8E92900
:10485000EB2B2AEAEE2E2FEF2DEDEC2CE42425E5B0
:1048600027E7E62622E2E323E12120E0A06061A120
:1048700063A3A26266A6A767A56564A46CACAD6DD0
:10488000AF6F6EAEAA6A6BAB69A9A86878B8B97940
:10489000BB7B7ABABE7E7FBF7DBDBC7CB47475B570
:1048A00077B7B67672B2B373B17170B05090915160
:1048B0009353529296565797559594549C5C5D9D90
:1048C0005F9F9E5E5A9A9B5B995958988848498980
:1048D0004B8B8A4A4E8E8F4F8D4D4C8C4484854530
:1048E000874746868242438341818042402D0102B0
:1048F0000304046009060708090204060800000012
:0400000508000131BD
:00000001FF
