:020000040800F2
:10000000D8060020450100084D0100084F010008F6
:1000100051010008530100085501000800000000CC
:100020000000000000000000000000005701000870
:1000300059010008000000005B0100083D1600089F
:100040005F0100085F0100085F0100085F01000810
:100050005F0100085F010008B10B00087D0C00087B
:100060005F0100085F0100085F010008C108000887
:100070005F0100085F0100085F0100085F010008E0
:100080005F0100085F010008E90100085F01000846
:100090005F0100085F0100085F0100085F010008C0
:1000A0005F0100085F0100085F0100085F010008B0
:1000B0005F0100085F010008FD1900085F010008EA
:1000C0005F0100085F0100085F0100085F01000890
:1000D0005F010008F92300085F0100085F010008C4
:1000E0005F0100085F0100085F0100085F01000870
:1000F0005F0100085F0100085F0100085F01000860
:100100005F0100085F0100085F0100085F0100084F
:100110005F0100085F010008D91B00085F010008AB
:100120005F0100085F0100085F0100085F0100082F
:10013000DFF80CD000F018F8004800470D2900083F
:10014000D80600200648804706480047FEE7FEE73D
:10015000FEE7FEE7FEE7FEE7FEE7FEE7FEE7FEE777
:100160005516000831010008064C074D06E0E0680E
:1001700040F0010394E8070098471034AC42F6D3EE
:10018000FFF7DAFF7C2900089C29000870B501EB15
:10019000020410F8015B15F0070301D110F8013BD0
:1001A0002A1106D110F8012B03E010F8016B01F8B9
:1001B000016B5B1EF9D12B0705D40023521E0FD40F
:1001C00001F8013BFAE710F8013B02F10202A1EB52
:1001D000030303E013F8015B01F8015B521EF9D53C
:1001E000A142D6D3002070BD10B5034800F0FFF83F
:1001F0000249088010BD0000002401400C000020CE
:1002000000B599B001214FF4027001F01DF90121F0
:10021000084601F009F90121084601F0F5F802202D
:10022000ADF8600000208DF8630018A9554800F073
:10023000C5FE0121084601F007F90121524800F0EE
:1002400047FF05A801F078FF6320ADF8180040F2E1
:100250006710ADF814000020ADF81A00ADF81600D4
:1002600005A94FF0804001F015FF6020ADF80400B3
:100270000120ADF806001420ADF80A000220ADF808
:100280000C0001A9400701F0E7FD0121880701F0FA
:10029000E7FC0121880701F006FD3C4800F050FB17
:1002A0003B4808903B48099000200A9001200B90A1
:1002B00000200C9080200D9040000E9080000F9048
:1002C00020201090000211900020129008A92F48C1
:1002D00000F0FDFB012202212C4800F0EFFB012180
:1002E0002A4800F021FB0020139001208DF85000D7
:1002F00000208DF851004FF4C0201590002016907A
:1003000001208DF85C0013A921484C3800F08AF8D0
:100310004FF4404001F06CF80523012209211C48EC
:100320004C3800F0A7F8012119484C3800F04AF881
:10033000012117484C3800F02FF815484C3800F0D0
:10034000F5F800BF12484C3800F055F80028F9D1F4
:100350000F484C3800F0EFF800BF0D484C3800F063
:100360003CF80028F9D1002109484C3800F01FF86A
:1003700001224FF4087106484C3800F046F819B0D5
:1003800000BD0000000C01400003180008000240FE
:100390004C2401405802002021B1826842F0010241
:1003A000826003E0826822F001028260704721B11E
:1003B000826842F48072826003E0826822F4807274
:1003C0008260704721B1826842F48012826003E04B
:1003D000826822F4801282607047014600208A6899
:1003E00012F0040F01D0012000E000207047014608
:1003F000C86C80B27047014600208A6812F0080F6E
:1004000001D0012000E00020704710B50023CBB2DE
:100410001AB144681C43446002E044689C43446051
:1004200010BD000030B502460020002350680F4C7C
:1004300020400D790C6844EA052420435060906800
:100440000B4C2040D1E902542C434D7944EA450439
:1004500020439060D06A20F470000C7C641EE4B2EB
:10046000234340EA0350D06230BD0000FFFEF0FF9E
:10047000FDF7F1FFF0B504460D4600200021092DDF
:1004800011DDE068A5F10A0606EB4607072606FA25
:1004900007F18843A5F10A0606EB460603FA06F1C2
:1004A0000843E0600CE0206905EB4507072606FAE3
:1004B00007F1884305EB450603FA06F1084320617E
:1004C000072A0FDA606B561E06EB86071F2606FA10
:1004D00007F18843561E06EB860605FA06F1084327
:1004E000606322E00D2A0FDA206BD61F06EB860729
:1004F0001F2606FA07F18843D61F06EB860605FA83
:1005000006F10843206310E0E06AA2F10D0606EB55
:1005100086071F2606FA07F18843A2F10D0606EBAF
:10052000860605FA06F10843E062F0BD816841F0F5
:10053000080181607047816841F004018160704763
:1005400005E0002101E04A1C91B20729FBDB020013
:10055000A0F1010398B2F4D1704700002DE9F041F9
:1005600002460025D2262948B0F85000904202DD0C
:100570000020BDE8F0812548B0F8A401904202DADD
:1005800040F25230F5E7692123E0204830F81100AD
:10059000904206DD0E46701900EBD078C8F3470193
:1005A00017E01A4830F81100904206DA0D4670192B
:1005B00000EBD078C8F347010BE001EBC10000EB82
:1005C00001104FF4FA68C8EB400083B21C46204685
:1005D000CFE7701B0128D8D101EB8100A0F1C8033F
:1005E0000A4830F8157030F816C0D01B4FF03208AA
:1005F00000FB08F0ACEB070890FBF8F003EB830876
:1006000000EB480084B22046B3E7000070000020F1
:1006100059B10C4A12684FF0010303FA00F342EAA1
:100620000302094BC3F800240AE0064A12684FF09F
:10063000010303FA00F322EA0302034BC3F8002488
:1006400070470000007400400070004000B585B0A5
:100650000121042000F0F8FE0121480700F0E4FE2B
:100660003020ADF8100000208DF8130004A91448C4
:1006700000F0A4FC3C20009000200190039069460B
:1006800000F020F86946102000F01CF8012100203D
:10069000FFF7BEFF01211020FFF7BAFF0021084637
:1006A00000F032F80021084600F038F8012100205F
:1006B00000F03EF80121102000F03AF805B000BD2E
:1006C0000008014030B5002200230D4C226840F69E
:1006D000FE7404FA00F422EA0402D1E9004544EA77
:1006E00005048D6844EA0504CD6844EA050303FA6D
:1006F00000F444EA0202034CC4F8002430BD0000B8
:1007000000740040007000400022034A00F108031A
:100710001A44116070470000007400400022034A30
:1007200000F114031A441160704700000074004087
:1007300010B569B10D4A12684FEA10144FF0010369
:1007400003FA04F342EA0302094BC3F804240CE061
:10075000064A12684FEA10144FF0010303FA04F33B
:1007600022EA0302024BC3F8042410BD04740040C3
:100770000070004070B505460C46012D04D0022DD6
:100780000FD0032D27D119E0012C04D1E103134828
:1007900000F0EFFC04E04FF40041104800F0EBFCE7
:1007A0001AE0012C04D1A1030C4800F0E2FC04E0A3
:1007B0004FF48041094800F0DEFC0DE0012C04D12B
:1007C0006103064800F0D5FC04E04FF400510348F3
:1007D00000F0D1FC00E000BF00BF70BD000C014084
:1007E00070B50446A078012829D100202A49087054
:1007F000E078012807D11021284800F0BCFC012036
:100800002749087009E0E078022806D11021234822
:1008100000F0AFFC0020224908706179207901EBDB
:10082000002085B2002D04DD00201E4908801E48EE
:10083000058001220C211D4801F01EFA2BE0A07852
:10084000022828D100201A490870E078012807D131
:100850002021124800F08FFC01201649087009E0A1
:10086000E078022806D120210C4800F082FC00200C
:10087000104908706179207901EB002085B2002DC4
:1008800004DD00200C4908800C4805800122082165
:10089000064801F0F1F970BD40020020001001404F
:1008A0003A0200202E02002032020020000C0040FC
:1008B000410200203B0200203002002034020020D0
:1008C00010B5022000F0E4F8B8B1012000F01EF8E5
:1008D0000A4801880A4802780078401C084B1870C2
:1008E000084820F81210184600780A2805D101207F
:1008F0000549087000201946087010BD58020020F4
:1009000015000020A80200200E00002010F0805FDB
:1009100002D00349086001E00249486070470000C6
:10092000040402400000024021B1026842F00102CA
:10093000026004E002684FF6FE731A4002607047DE
:1009400001684FF6FE7211400160002101604160B4
:100950008160C1604A49884208D1494908394968DB
:1009600041F00F01464A083A516088E04449143189
:10097000884208D142490839496841F0F001404AAB
:10098000083A51607BE03E492831884208D13C4911
:100990000839496841F47061394A083A51606EE09B
:1009A00037493C31884208D135490839496841F412
:1009B0007041334A083A516061E031495031884210
:1009C00008D12F490839496841F470212C4A083A66
:1009D000516054E02A496431884208D128490839D5
:1009E000496841F47001264A083A516047E02449B9
:1009F0007831884208D122490839496841F070614C
:100A00001F4A083A51603AE01E49884208D1A0F1D5
:100A10000401096841F00F011B4AC2F804142EE0DA
:100A200018491431884207D11849096841F0F0018A
:100A3000154AC2F8041422E012492831884207D12D
:100A40001249096841F470610F4AC2F8041416E0B3
:100A50000C493C31884207D10C49096841F4704186
:100A6000094AC2F804140AE006495031884206D106
:100A70000649096841F47021034AC2F8041470471A
:100A80000800024008040240000002400404024042
:100A900001460020002211F0805F02D0054B1A6849
:100AA00001E0054B1A680A4201D0012000E0002055
:100AB0007047000000040240000002401AB10368C1
:100AC0000B43036002E003688B430360704710B57B
:100AD0000022026847F6F0739A430C6A8B6823433E
:100AE0000C6923434C6923438C692343CC6923431A
:100AF0004C6A23438C6A23431A430260CB684360E9
:100B00000B6883604B68C36010BDF0B585B00746C5
:100B100000250024002600BF05E037F814002DF85A
:100B20001400601CC4B20A2CF7DB012512E000247B
:100B30000AE06B46621C03EB42016A4602EB44008A
:100B400001F0DAFE601CC4B2C5F10A00A042F0DC7C
:100B5000681CC5B20A2DEADB002505E0A81C3DF89B
:100B600010000644681CC5B2062DF7DB0620B6FB54
:100B7000F0F6B0B205B0F0BD06E0002101E04A1C7D
:100B800091B2B1F5FA5FFADB0200A0F1010398B26D
:100B9000F3D1704705E0002101E04A1C91B207291A
:100BA000FBDB0200A0F1010398B2F4D17047000012
:100BB00010B5012000F00EF9B0B329480088401CA0
:100BC000274908802748007801280BD1264800884B
:100BD0004FF6FF71884205DA23480088401C2249FD
:100BE00008800BE01F48007840B91F4800880028A3
:100BF00004DD1D480088401E1B49088018480088F5
:100C00001A490988884210D11948007868B900202B
:100C1000134908804FF4FA70FFF7BCFF00220C2143
:100C2000144801F029F816E018E00D480088124930
:100C3000098888420FD10E48007801280BD1002086
:100C4000074908804FF4FA70FFF7A4FF00220C2137
:100C5000084801F011F8012000F076F810BD0000FE
:100C60002E0200203A0200203C0200203202002026
:100C700040020020000C00403602002010B5022087
:100C800000F0A8F8B0B329480088401C2749088024
:100C90002748007801280BD1264800884FF6FF71BD
:100CA000884205DA23480088401C224908800BE06E
:100CB0001F48007840B91F480088002804DD1D48FF
:100CC0000088401E1B490880184800881A49098876
:100CD000884210D11948007868B90020134908806B
:100CE0004FF4FA70FFF756FF00220821144800F075
:100CF000C3FF16E018E00D480088124909888842B1
:100D00000FD10E48007801280BD100200749088038
:100D10004FF4FA70FFF73EFF00220821084800F068
:100D2000ABFF022000F010F810BD000030020020E0
:100D30003B0200203E02002034020020410200203D
:100D4000000C004038020020014908607047000094
:100D5000140401400EB50121112000F075FB0F2095
:100D6000ADF8080028208DF80B0002A9184800F003
:100D700025F90021022000F001F901200090002057
:100D80008DF8040008208DF8050001208DF806007C
:100D9000684600F035F80121022000F0EFF802204B
:100DA0000090684600F02CF80221084600F0E6F8B2
:100DB00004200090684600F023F80321022000F090
:100DC000DDF808200090684600F01AF80EBD00001B
:100DD00000100140014600200022074B1B6803EA77
:100DE0000102064BD3F814340B4202D00AB10120A1
:100DF00000E00020704700000004014000000140B6
:100E0000002127498279DAB3264AD2F80024036800
:100E10009A43244BC3F800241A46D2F804240368EA
:100E20009A4301F104031A60027911440A680368C5
:100E300042EA03020A601B4AD2F80824036822EA45
:100E40000302184BC3F808241A46D2F80C2403688E
:100E500022EA0302144B1A604279102A11D1114A76
:100E6000D2F8082403681A430E4BC3F808241A4624
:100E7000D2F80C2403681A430A4BC3F80C240EE082
:100E800007E00749427911440A6803681A430A6077
:100E900005E0027911440A6803689A430A607047C2
:100EA00000040140000001400C04014010B5042181
:100EB0002C4800F043FB01280AD12B48007840F071
:100EC0000100294908704021284800F052F909E042
:100ED0002548007820F0010023490870402123486C
:100EE00000F049F92248008850280ADA1E480078A4
:100EF00040F002001C49087080211C4800F039F9BC
:100F000009E01948007820F0020017490870802194
:100F1000164800F030F917480088B0F5486F0BDD2F
:100F20001148007840F004000F4908704FF48071B8
:100F3000114800F01EF90AE00B48007820F0040088
:100F4000094908704FF480710B4800F014F9064805
:100F50000078002805DD002000F04CF9002000F0AA
:100F600035F910BD001801400400002000100140B8
:100F70002A020020280000200008014030B500228D
:100F80008B071C0F0F2303FA04F20B4B8C1053F842
:100F900024309343084C8D1044F8253023468C10A0
:100FA00053F824308C07240F00FA04F42343024C36
:100FB0008D1044F8253030BD080001402DE9F04186
:100FC000024600250026002000230024002791F877
:100FD00003C00CF00F0591F803C01CF0100F03D0F4
:100FE00091F802C04CEA0505B1F800C01CF0FF0FF3
:100FF00031D0146800202BE04FF0010C0CFA00F304
:10100000B1F800C00CEA03069E4220D183004FF0E5
:101010000F0C0CFA03F7BC4305FA03FC4CEA04047A
:1010200091F803C0BCF1280F06D14FF0010C0CFA67
:1010300000FCC2F814C00AE091F803C0BCF1480FEC
:1010400005D14FF0010C0CFA00FCC2F810C0401C96
:101050000828D1D31460B1F800C0BCF1FF0F34DD13
:10106000546800202EE000F1080C4FF0010808FA47
:101070000CF3B1F800C00CEA03069E4221D18300B4
:101080004FF00F0C0CFA03F7BC4305FA03FC4CEAD3
:10109000040491F803C0BCF1280F05D100F1080C3D
:1010A00008FA0CF8C2F8148091F803C0BCF1480F9C
:1010B00007D100F1080C4FF0010808FA0CF8C2F84B
:1010C0001080401C0828CED35460BDE8F081000099
:1010D000F0B50A46002300240021002500F0004658
:1010E000B6F1004F02D11D4EF16901E01B4E71684F
:1010F000C0F3034583B200F44016B6F5401F08D193
:1011000021F07061154E766826F07066134F7E6090
:1011100012E000F48016B6F5801F06D1032606FA09
:1011200005F4A14341F0706106E0460D360103FA73
:1011300006F6B14341F0706122B1460D360103FA63
:1011400006F6314300F00046B6F1004F02D1034EDF
:10115000F16101E0014E7160F0BD0000000001404E
:101160000246002093680B4201D0012000E00020DD
:1011700070474161704701617047000010B5002061
:101180000D49087001210D48FFF711F908210C489D
:10119000FFF7EFFF08210A48FFF7EDFF402109485C
:1011A000FFF7E9FF80210748FFF7E5FF4FF4807163
:1011B0000548FFF7E0FF10BD0300002000240140B8
:1011C0000018014000100140000801401FB504460E
:1011D0006020ADF800000120ADF80200ADF8064037
:1011E0000220ADF808006946014800F0DFFD1FBD90
:1011F0000004004070B505464FF4997068430A2119
:1012000090FBF1F084B2B4F5805F01DB40F6FF742F
:1012100021460020FFF778FA01210020FFF788FA25
:1012200070BD08B54FF4407000F088F80A208DF8C2
:10123000000000208DF801008DF8020001208DF8DB
:101240000300684600F038F825208DF800000120E2
:101250008DF80100684600F02FF80B208DF8000093
:1012600002208DF80100684600F026F81E208DF857
:10127000000003208DF80100684600F01DF83620BC
:101280008DF8000004208DF80100684600F014F885
:1012900006208DF8000005208DF80100684600F05A
:1012A0000BF807208DF8000006208DF80100684635
:1012B00000F002F808BD000070B5002100230F22E5
:1012C000C4784CB31A4C246804F4E064C4F5E064B8
:1012D0004FEA1421C1F1040322FA01F2447804FA1E
:1012E00003F1847804EA020444EA01014FEA01119F
:1012F000104C0678A155047804F01F054FF0010446
:1013000004FA05F405784FEA65154FF0E02606EB80
:101310008505C5F8004109E0047804F01F050124A3
:10132000AC40054D0678761145F8264070BD0000AA
:101330000CED00E000E400E080E100E00249014340
:10134000024A1160704700000000FA050CED00E051
:1013500008B501217C2000F077F810208DF80300FB
:1013600003208DF802004FF4CC50ADF80000694620
:101370001A48FFF723FE4FF60100ADF8000069465A
:101380001748FFF71BFEF020ADF80000694615482E
:10139000FFF714FE8820ADF8000069461248FFF7F9
:1013A0000DFE48208DF8030003208DF80200FF2079
:1013B000ADF8000069460D48FFF700FE4FF4C0503D
:1013C000ADF8000069460748FFF7F8FD0420ADF8C6
:1013D000000069460448FFF7F1FD08BD0008014020
:1013E000000C0140001001400018014000140140B1
:1013F00001460020034A506820F4404008435060F2
:10140000704700000010024029B1064A52690243A9
:10141000044B5A6104E0034A52698243014B5A610A
:10142000704700000010024029B1064AD269024309
:10143000044BDA6104E0034AD2698243014BDA616A
:10144000704700000010024029B1064A9269024329
:10145000044B9A6104E0034A92698243014B9A610A
:10146000704700000010024030B500210022002427
:1014700000232D4D6D6805F00C0121B1042905D024
:10148000082923D105E0294D056022E0274D05609C
:101490001FE0254D6D6805F47012234D6D6805F44D
:1014A0008034022505EB92421CB9214D554305605D
:1014B0000BE01D4D6D6815F4003F03D01C4D5543E6
:1014C000056002E0194D5543056002E0174D0560C7
:1014D00000BF00BF144D6D6805F0F0010909154DFE
:1014E0006B5C0568DD4045600F4D6D6805F4E0619B
:1014F000090A104D6B5C4568DD4085600A4D6D68DA
:1015000005F46051C90A0B4D6B5C4568DD40C56050
:10151000054D6D6805F44041890B074D6B5CC5684E
:10152000B5FBF3F5056130BD0010024000127A00F2
:1015300000093D00430200205302002070B504461C
:101540000D4629462046FFF70BFE01280CD14FF42B
:101550007A70FFF71FFB29462046FFF701FE01289E
:1015600000D170BD0020FCE70020FAE710B500F0C4
:1015700001F810BD002100202E4A126842F480328A
:101580002C4B1A6000BF2B4A126802F40030491C31
:1015900010B9B1F5A06FF6D1264A126812F4003FD7
:1015A00001D0012000E00020012842D1224A126827
:1015B00042F01002204B1A601A46126822F0030211
:1015C0001A601A46126842F002021A60194A5268FA
:1015D000184B5A601A4652685A601A46526842F4CA
:1015E00080625A601A46526822F47C125A601A4687
:1015F000526842F4E8125A601A46126842F0807249
:101600001A6000BF0B4A126812F0007FFAD0094A34
:10161000526822F00302074B5A601A46526842F0A1
:1016200002025A6000BF034A526802F00C02082A04
:10163000F9D17047001002400020024004480068C1
:1016400020B103480068401E01490860704700004F
:101650000800002010B51348006840F0010011494F
:10166000086008464068104908400E49486008462E
:1016700000680E4908400B4908600846006820F4DD
:10168000802008600846406820F4FE0048604FF45F
:101690001F008860FFF76AFF4FF000600449086090
:1016A00010BD0000001002400000FFF8FFFFF6FE32
:1016B00008ED00E0F0B50C46154600220021068C2E
:1016C0004FF6FE773E400684028B018C4FF60C7677
:1016D00032401E0545EA16463243114EB0420ED046
:1016E000104EB0420BD0B0F1804F08D00E4EB04239
:1016F00005D00E4EB04202D00D4EB04206D14FF68C
:10170000FD76314044F00106314305E04FF6F576B1
:10171000314044F00106314302830184F0BD0000F2
:10172000002C01400034014000040040000800404B
:10173000000C0040F0B50C461546002200210026A2
:10174000078C4FF6EF7C07EA0C070784028B018CAD
:1017500027053E0C40F6FF473A401F0742EA174272
:101760002F0642EA1742114FB8420ED0104FB8422E
:101770000BD0B0F1804F08D00E4FB84205D00E4FBD
:10178000B84202D00D4FB84206D14FF6DF7739404C
:1017900046F01007394305E04FF65F77394044F0D3
:1017A0001007394302830184F0BD0000002C014082
:1017B000003401400004004000080040000C0040DC
:1017C000F0B50C461546002200210026078C4FF686
:1017D000FF6C07EA0C070784828B018C27063E0CFE
:1017E0004FF60C773A401F0545EA17473A43114F29
:1017F000B8420ED0104FB8420BD0B0F1804F08D095
:101800000E4FB84205D00E4FB84202D00D4FB8422D
:1018100006D14FF6FF57394046F48077394305E04B
:101820004FF2FF57394044F4807739438283018473
:10183000F0BD0000002C01400034014000040040D5
:1018400000080040000C0040F0B50C461546002290
:1018500000210026078C4EF6FF7C07EA0C07078460
:10186000828B018C27073E0C40F6FF473A402F063B
:1018700042EA17421F0742EA1742114FB8420ED000
:10188000104FB8420BD0B0F1804F08D00E4FB84285
:1018900005D00E4FB84202D00D4FB84206D14DF6DA
:1018A000FF77394046F48057394305E047F6FF5744
:1018B000394044F48057394382830184F0BD0000ED
:1018C000002C0140003401400004004000080040AA
:1018D000000C004000B589B001210220FFF7A4FDF3
:1018E00001210420FFF7B0FD4020ADF820001820B2
:1018F0008DF8230003208DF8220008A91848FFF76F
:101900005DFB42F20F70ADF818004720ADF81400EF
:101910000020ADF81A00ADF8160005A9114800F036
:10192000B9FB6020ADF804000120ADF8060040F6D8
:10193000B830ADF80A000220ADF80C0001A9094842
:1019400000F034FA0821074800F07CFA012105482C
:1019500000F086F90121034800F0A5F909B000BDA7
:10196000000801400004004000B587B001210420B8
:10197000FFF75AFD01210820FFF766FD4020ADF872
:10198000180004208DF81B0003208DF81A0006A90A
:101990001848FFF713FB4FF6FF70ADF8100040F644
:1019A0000F60ADF80C000020ADF81200ADF80E008D
:1019B0008DF8140003A9104800F06CFB0020ADF86E
:1019C0000000ADF802000120ADF804000020ADF8E1
:1019D0000600ADF808006946074800F085F90121C6
:1019E000054800F060F901220221034800F0D2F915
:1019F00007B000BD000C01400008004010B50221F6
:101A0000204800F05FF901283BD102211D4800F079
:101A100047F91D48008840B91A4800F050F91B49A1
:101A200008800120184908802BE017480088012809
:101A300027D1144800F043F915490880084600886A
:101A400012490988884207DD114800880F49098832
:101A5000401A1049088009E00C4800884FF6FF71D1
:101A6000081A0B49098808440A490880094800886F
:101A700044F6206191FBF0F00749088000200249FC
:101A8000088010BD000800401A0000201600002049
:101A9000180000201C0000202A02002000B589B098
:101AA00001210820FFF7C0FC01210420FFF7CCFC36
:101AB0000F20ADF8200018208DF8230003208DF8AA
:101AC000220008A92E48FFF779FA6320ADF8180024
:101AD00040F2CF20ADF814000020ADF81A00ADF8A8
:101AE000160005A9274800F0D5FA6020ADF80400DB
:101AF0000120ADF806003220ADF80A000220ADF852
:101B00000C0001A91F4800F051F908211D4800F000
:101B100099F901A91B4800F09FF90821194800F024
:101B2000E9F901A9174800F0F1F90821154800F07A
:101B300039FA01A9134800F03FFA0821114800F0D2
:101B400075FA01210F4800F08BF801210D4800F0D3
:101B5000AAF8002211460B4800F08EF8002204215A
:101B6000084800F089F800220821064800F084F8AF
:101B700000220C21034800F07FF809B000BD0000EE
:101B800000080140000C00400EB501211020FFF7B5
:101B90004BFC40F2E730ADF8040041F61F40ADF8D1
:101BA00000000020ADF80600ADF802008DF8080036
:101BB0006946084800F06EFA0121064800F06DF809
:101BC00001221146034800F0E5F80121014800F028
:101BD0006AF80EBD0010004010B501211A4800F04F
:101BE00071F8F8B10121184800F05AF81748008838
:101BF000401C1649088008460088012822D1002090
:101C0000088000F021FD1248007801280BD111480E
:101C1000008811490988884205DA0E480088401C6E
:101C20000C4908800EE00A48007803280AD10948C8
:101C300000880A490988884204DA06480088401C5E
:101C40000449088010BD0000001000401E00002064
:101C50006E000020200000202E0000203000002018
:101C600021B1028842F08002028004E002884FF62F
:101C70007F731A400280704730B5002301248C40E6
:101C8000A3B2048CDD43ADB22C400484048C02FA70
:101C900001F5ADB22C43048430BDCA4302827047C3
:101CA000CA430282704721B1028842F001020280D9
:101CB00004E002884FF6FE731A4002807047014626
:101CC000888E704730B50246002000230024158A14
:101CD00005EA0103958905EA010413B10CB101205D
:101CE00000E0002030BD000070B505460C462448D9
:101CF00085420ED0234885420BD0B5F1804F08D0E5
:101D00002148854205D02148854202D0204885429D
:101D100000D100E000BF208850B92389A2886188E3
:101D20002846FFF7C7FCE188284600F08AF925E03D
:101D3000208804280AD12389A28861882846FFF7D1
:101D4000F9FCE188284600F085F917E0208808288A
:101D50000AD12389A28861882846FFF731FDE188EE
:101D6000284600F082F909E02389A2886188284684
:101D7000FFF76AFDE188284600F080F970BD000099
:101D8000002C0140003401400004004000080040E5
:101D9000000C004010B51AB183890B43838104E025
:101DA0008389CC43A4B22340838110BD70B5002445
:101DB00000220023058C4FF6FE7635400584028C08
:101DC0008388048B4FF68F752C40B51E2C400D88F0
:101DD0002C43751E2A400D892A434D882A43144DF1
:101DE000A8420BD0134DA84208D0134DA84205D0ED
:101DF000124DA84202D0124DA84213D14FF6F775EA
:101E00002A404D892A434FF6FB752A408D882A4384
:101E10004FF6FF652B404FF6FF552B408D892B4326
:101E2000CD892B4383800483CD888586028470BD51
:101E3000002C0140003401400040014000440140BA
:101E4000004801400A460021018B4FF6F773194004
:101E5000114301837047000070B500240022002365
:101E6000058C4FF6EF7635400584028C8388048B11
:101E700048F6FF752C404FF6FF452C400D882D0687
:101E800044EA15444FF6DF752A400D892D0542EAD4
:101E900015424D882D0542EA1542144DA84202D044
:101EA000134DA8421BD14FF67F752A404D892D0551
:101EB00042EA15424FF6BF752A408D882D0542EA49
:101EC00015424FF6FF352B404FF2FF752B408D89A1
:101ED000AD0443EA1543CD89AD0443EA154383803D
:101EE0000483CD880587028470BD0000002C01406A
:101EF000003401400A460021018B4FF2FF73194064
:101F0000130641EA134101837047000070B50024B5
:101F100000220023058C4FF6FF6635400584028CB5
:101F20008388848B4FF68F752C404FF6FC752C40C0
:101F30000D882C434FF6FF552A400D892D0642EAA5
:101F400015424D882D0642EA1542144DA84202D092
:101F5000134DA8421BD14FF2FF752A404D892D0623
:101F600042EA15424FF6FF352A408D882D0642EA97
:101F700015424EF6FF752B404DF6FF752B408D89AF
:101F80002D0543EA1543CD892D0543EA154383808A
:101F90008483CD888587028470BD0000002C0140B9
:101FA000003401400A460021818B4FF6F773194037
:101FB000114381837047000070B500220023002484
:101FC000058C4EF6FF7635400584038C8488828B21
:101FD00048F6FF752A404FF6FF452A400D882D062A
:101FE00042EA15424DF6FF752B400D892D0743EA55
:101FF00015434D882D0743EA15430A4DA84202D0E8
:10200000094DA84206D14BF6FF752C408D89AD05D0
:1020100044EA154484808283CD88A0F8405003842C
:1020200070BD0000002C0140003401400A46002130
:10203000818B4FF2FF731940130641EA13418183EC
:102040007047028B4FF6F3731A400283028B0A43E8
:1020500002837047028B4FF2FF331A400283028BD8
:102060000B0642EA134202837047828B4FF6F373EA
:102070001A408283828B0A4382837047828B4FF29D
:10208000FF331A408283828B0B0642EA134282831B
:1020900070470000002202881D4B98420ED01D4B55
:1020A00098420BD0B0F1804F08D01B4B984205D01E
:1020B0001A4B984202D01A4B984204D14FF68F73B4
:1020C0001A404B881A43174B984207D0164B984238
:1020D00004D04FF6FF431A40CB881A4302808B8806
:1020E00083850B8803850A4B98420BD0094B984295
:1020F00008D00E4B984205D00D4B984202D00D4BA4
:10210000984201D10B7A0386012383827047000035
:10211000002C014000340140000400400008004051
:10212000000C00400010004000140040004001403E
:1021300000440140004801404FF6FF7181800021BA
:102140000180C18041800172704700000246501A30
:102150002F4B1860184600681E2806DA00202D4B09
:1021600018600C202C4B186006E04FF4FA70294BD5
:1021700018600020284B186028480068244B1B6812
:102180005843274B186024480068214B1B6858436C
:102190000A2390FBF3F0234B1B681844214B186073
:1021A00018460068B0F5FA6F02DD4FF4FA60186067
:1021B000174800681C4B1B68C01A164B1B68584315
:1021C0001A4B186016480068164B1B681844174BCA
:1021D0001B681844164B18601846006842F21073CA
:1021E000984203DD1846124B186006E0104800685C
:1021F000002802DA00200E4B1860054800680A4BE0
:1022000018600B4800680B4B188018460088704710
:102210003C0000204C00002048000020440000202A
:1022200050000020540000204000002058000020F2
:102230005C0000206000002070B5002400263E48AD
:10224000FEF763FC04463D480078C0B940F62C60B8
:10225000604340F6FF71B0FBF1F0394908804FF45C
:1022600000613848FEF787FF0120FEF785FC012159
:102270003548FEF79CF80120304908705BE02F4894
:102280000078012857D140F62C60604340F6FF717A
:10229000B0FBF1F02D4908804FF400612948FEF7AA
:1022A00068FF0120FEF768FC254800882749098857
:1022B000C1EB4000264948432449098847F230527F
:1022C000511A90FBF1F5234802780078401C214B0D
:1022D0001870214820F81250184600780A2823D197
:1022E0001D48FEF712FC1D4908600846006880B2D0
:1022F000FEF734F91A490880084601881948008811
:10230000FFF724FF06461848007838B917480078C8
:10231000012803D13046FEF759FF02E00020FEF706
:1023200055FF00200B49087001210748FEF73FF8D0
:1023300000200249087070BDA802002003000020A0
:1023400016020020000C0140002401401802002069
:1023500028460F001A020020C0020020380000208A
:10236000280000202A000020040000206F00002028
:1023700000B585B0012144F20400FFF765F84FF481
:102380000070ADF8100018208DF8130003208DF8B0
:10239000120004A91648FEF711FE4FF48060ADF854
:1023A000100004208DF8130004A91148FEF706FE62
:1023B0004FF4E13000900020ADF80400ADF80600C5
:1023C000ADF80800ADF80C000C20ADF80A00694625
:1023D000084800F0AFF8012240F22551054800F00E
:1023E00083F80121034800F049F805B000BD000062
:1023F000000801400038014010B540F225511A484C
:1024000000F048F870B3184800F000F91749087058
:102410001748007890B9084600787E280AD1084607
:102420000178134802780078401C114B187011484D
:10243000815417E000200E49087013E00B48017822
:102440000B4802780078401C094B187009488154E9
:1024500006480078E72805D10120074908700020C8
:102460001946087010BD000000380140240000200B
:10247000250000206A0200202600002021B1828968
:1024800042F40052828104E082894DF6FF731A40C3
:102490008281704770B50246002400230025002089
:1024A000A1F510666A3E00D100BFC1F3421501F0EC
:1024B0001F03012606FA03F3012D02D1968933404A
:1024C00006E0022D02D1168A334001E0968A33409D
:1024D0000C12012606FA04F41688344013B10CB12C
:1024E000012000E0002070BDF0B503460024002666
:1024F00000250020A1F510676A3F00D100BF1846F3
:10250000C1F3421401F01F06012707FA06F5012C5A
:1025100001D10C3004E0022C01D1103000E0143065
:102520001AB107682F43076002E00768AF430760EE
:10253000F0BD00002DE9F04786B005460E460024A8
:10254000A24600BFA1460027B08900B100BF2F46B8
:102550002C8A4CF6FF700440F08804432C82AC892E
:102560004EF6F3100440B08831890843718908435E
:102570000443AC81AC8A4FF6FF400440B089044369
:10258000AC8201A8FEF770FF1F48874202D1DDF838
:1025900010A001E0DDF80CA0A88910F4004F08D0CD
:1025A0000AEBCA0000EB0A1031684900B0FBF1F8F1
:1025B00007E00AEBCA0000EB0A1031688900B0FBA3
:1025C000F1F86420B8FBF0F004012009642101FB5C
:1025D0001089A88910F4004F08D0322000EBC90000
:1025E000B0FBF1F000F00700044308E0322000EBFC
:1025F00009106421B0FBF1F000F00F0004432C81BE
:1026000006B0BDE8F0870000003801400146888828
:10261000C0F308007047C1F30802828070472DE9BB
:10262000F04107460D461646002408E0295D38466D
:10263000FFF7F1FF6420FDF783FF601CC4B2B442D2
:10264000F4DBBDE8F081000010B504464FF69C7045
:102650002A4908807E202A490870DCB9B1204870D8
:10266000284800880012887026480088C8702648CC
:1026700000880012087124480088487123480088A7
:102680000012887121480088C871AA200872E720CA
:1026900048722DE0012C1CD1B2201949487017480E
:1026A00000880012887015480088C8701848008893
:1026B00000120871164800884871164800880012F8
:1026C000887114480088C871AA200872E7204872EF
:1026D0000EE0022C0CD1C1200949487030208870CE
:1026E000C8709F200871E72048718871C87108720E
:1026F0000A2203490848FFF792FF10BD620000203C
:102700009C020020280000203C0200203E02002005
:1027100064000020660000200038014002E008C884
:10272000121F08C1002AFAD170477047002001E04B
:1027300001C1121F002AFBD17047000070B55C4830
:102740004678A6F1A1000B287ED2DFE800F0060A49
:10275000102246556584859BA4005548FEF740F835
:10276000A3E0534AD1789078FEF704F89DE05048F2
:102770008078012804D14F4800884F49088007E03D
:102780004B488078022803D14C4800884C49088087
:102790008BE001204B4908704548807818B901202A
:1027A0004949087018E042488078012814D1002077
:1027B0004549087010214548FEF7DBFC00204449DC
:1027C00008703C4800883C490988884204D10122AD
:1027D0000C214048FFF750FA67E03548807801281F
:1027E00003D100203849087005E03148807810B9DD
:1027F00001203549087058E02D488078012803D120
:1028000000202C49088006E029488078022802D15F
:1028100000202A49088048E02548C178807801EBEB
:1028200000202D49088022484179007901EB0020E1
:102830002A4908801E48C179807901EB0020284987
:1028400008801B48417A00E02EE0007A01EB00206E
:102850002449088029E028E01548C178807801EBF8
:1028600000202149086012484179007901EB0020DD
:102870001E4908600E48C179807901EB00201C498F
:10288000086012E00A4880781A4908700846007803
:10289000FEF7B0FC09E006488578642005FB00F4EB
:1028A0002046FEF793FC00E000BF00BF70BD0000B3
:1028B0006A0200203C020020360200203E02002076
:1028C00038020020400200206F000020001001406C
:1028D0003A020020000C00402A0000202E000020B8
:1028E0002C00002030000020440000204800002080
:1028F0004C0000202802002010B503880C88A34259
:1029000003DD02880B8803800A8010BD00BFFEF73C
:102910001FFDFEF786FCFFF72BFDFDF771FCFEF7B0
:102920002DFCFDF793FEFEF715FAFEF7D3FFFFF738
:102930001BF8FFF7B3F8FFF727F90020FEF746FC76
:102940005A20FEF757FC13E00A480078012804D10A
:10295000FFF7F4FE002007490870074800780128B7
:1029600004D1FFF769FC002003490870FEF79EFAC6
:10297000EAE70000260000200E0000209C29000845
:1029800000000020580200008C0100087C2B000889
:1029900058020020800400002C270008012A16B8E5
:1029A0000BE8031902130A3246320C021BC82BD063
:1029B00007022110493C071408EB08C109960A6A6E
:1029C0000B3E0C100DE20DB40E840F54102411F2C6
:1029D00011C0128E135B142715F315BF168A1754F6
:1029E000181E19E719B11A791B411C091DD11D9830
:1029F0001E5F1F2520EB20B12176223B2300FF0024
:102A000024C42489254C261027D327962859291B0E
:102A10002ADD2A9F2B612C222DE32DA42E642F2446
:102A200030E430A43163322233E0339F345D351B10
:102A300036D836953752380F39CB39873A433BFE73
:102A40003BBA3C753D2F3EE93EA33F5D401741D068
:102A50004189424143FA43B24469452146D8468FF1
:102A6000474548FC48B249674A1D4BD24B874C3B0F
:102A70004DEF4DA34E574F0A50BE5070512352D5C3
:102A80005287533954EA549B554C56FC56AD575D0A
:102A9000580C59BC596B5A195BC85B765C245DD2E3
:102AA0005D7F5E2C5FD95F85603161DD6189623455
:102AB00063DF638A643465DE6588663267DB67845A
:102AC000682D69D5697D6A256BCD6B746C1B6DC2F1
:102AD0006D686E0E6FB46F5A70FF70A4714872ED1E
:102AE0007291733574D8747B751E76C176637705E1
:102AF00078A7784979EA798B7A2B7BCC7B6C00605C
:102B00001C7C0C7DAB7D4A7EE97E887F2680C4805C
:102B10006281FF819C823983D68372840E85AA8567
:102B20004586E0867B871688B0884A89E4897D8A55
:102B3000168BAF8B488CE08C788D0F8EA78E3E8FD6
:102B4000D58F6B90019197912D92C2925793EC93F0
:102B500081941595A9953C96D0966397F697889899
:102B60005A020221573075307501012D010203040C
:0C2B70000410090607080902040608000A
:0400000508000131BD
:00000001FF
